:040000002DEF0DF0E3
:08000800046ED8CF05F0E0CF33
:1000100006F00001E9CF0CF0EACF07F0E1CF08F0DD
:10002000E2CF09F0D9CF0AF0DACF0BF0F3CF12F01C
:10003000F4CF13F0FACF14F0F5CF15F0F6CF16F099
:10004000F7CF17F000C00EF001C00FF002C010F0A3
:1000500003C011F0F2AA30EF00F0F2B46DEF00F03F
:10006000F0A836EF00F0F0B267EF00F00EC000F03D
:100070000FC001F010C002F011C003F00CC0E9FF86
:1000800007C0EAFF078E08C0E1FF09C0E2FF0AC00F
:10009000D9FF0BC0DAFF12C0F3FF13C0F4FF14C086
:1000A000FAFF15C0F5FF16C0F6FF17C0F7FF0450A2
:1000B00006C0E0FF05C0D8FF1000F76ACA0FF66E51
:1000C000000EF7220900F5501200280C0106010E5F
:1000D0002A26F092F09236EF00F0F098F29A2B90E8
:1000E0002A50090802E22B8201D02B9224C0D7FFAC
:1000F00023C0D6FF0000F294F29436EF00F0554E84
:100100004558504F000042415251554953494D45C1
:10011000544F000044616E69656C61204361F16178
:1001200073005B446576656C6F7065725D00476156
:10013000627269656C2047696D656E657A005B4423
:100140006576656C6F7065725D004361726C6F738C
:100150002047756564657A005B446576656C6F70F1
:1001600065725D004361726C6F73205A616D6272DB
:10017000616E6F005B5475746F725D005B4D454E30
:10018000555D2020323E54544C00313E41443632BD
:100190003020333E4E65787400004D454E55205456
:1001A000544C0000313E3734303820333E4E6578B1
:1001B000740037344C5330382054657374696E675B
:1001C0002E2E2E00323E566F6C7665720000414E28
:1001D000442D31204275656E6F21000037344C5339
:1001E00030382054657374696E672E2E2E00414E90
:1001F000442D32204275656E6F21000037344C5318
:1002000030382054657374696E672E2E2E00414E6F
:10021000442D33204275656E6F21000037344C53F6
:1002200030382054657374696E672E2E2E00414E4F
:10023000442D34204275656E6F21000037344C53D5
:1002400030382054657374696E672E2E2E00427507
:10025000656E6F7320256900526567726573616E04
:10026000646F2E2E00004D454E552054544C000016
:10027000313E3734303820333E4E657874004D457A
:100280004E55205052494E434950414C0000313E9A
:100290003734303820333E4E65787400313E373481
:1002A000303220323E3734383600343E3734333241
:1002B00020333E4E6578740037344C53303220542E
:1002C000657374696E672E2E2E00323E566F6C7603
:1002D000657200004E4F522D31204275656E6F21C0
:1002E000000037344C5330322054657374696E67A4
:1002F0002E2E2E004E4F522D32204275656E6F21EC
:10030000000037344C5330322054657374696E6783
:100310002E2E2E004E4F522D33204275656E6F21CA
:10032000000037344C5330322054657374696E6763
:100330002E2E2E004E4F522D34204275656E6F21A9
:10034000000037344C5330322054657374696E6743
:100350002E2E2E004275656E6F7320256900526542
:1003600067726573616E646F2E2E000037344C53D4
:1003700038362054657374696E672E2E2E00323E17
:10038000566F6C7665720000584F522D31204275C1
:10039000656E6F21000037344C5338362054657336
:1003A00074696E672E2E2E00584F522D32204275E2
:1003B000656E6F21000037344C5338362054657316
:1003C00074696E672E2E2E00584F522D33204275C1
:1003D000656E6F21000037344C53383620546573F6
:1003E00074696E672E2E2E00584F522D34204275A0
:1003F000656E6F21000037344C53383620546573D6
:1004000074696E672E2E2E004275656E6F732025FF
:100410006900526567726573616E646F2E2E00000D
:1004200037344C5333322054657374696E672E2E03
:100430002E00323E566F6C76657200004F522D31A1
:10044000204275656E6F210037344C53333220548F
:10045000657374696E672E2E2E004F522D32204226
:1004600075656E6F210037344C53333220546573F9
:1004700074696E672E2E2E004F522D332042756503
:100480006E6F210037344C533332205465737469D6
:100490006E672E2E2E004F522D34204275656E6FE2
:1004A000210037344C5333322054657374696E67BE
:1004B0002E2E2E004275656E6F73202569005265E1
:1004C00067726573616E646F2E2E0000313E3734A3
:1004D000303020323E3734303100343E373430341F
:1004E00020333E4E6578740037344C5330302054FE
:1004F000657374696E672E2E2E00323E566F6C76D1
:10050000657200004E414E442D31204275656E6F7C
:10051000210037344C5330302054657374696E6752
:100520002E2E2E004E414E442D32204275656E6FA8
:10053000210037344C5330302054657374696E6732
:100540002E2E2E004E414E442D33204275656E6F87
:10055000210037344C5330302054657374696E6712
:100560002E2E2E004E414E442D34204275656E6F66
:10057000210037344C5330302054657374696E67F2
:100580002E2E2E004275656E6F7320256900526510
:1005900067726573616E646F2E2E0000526567721C
:1005A0006573616E646F2E2E000037344C5330310A
:1005B0002054657374696E672E2E2E00323E566F7E
:1005C0006C76657200004E414E442D3120427565B7
:1005D0006E6F210037344C53303120546573746989
:1005E0006E672E2E2E004E414E442D3220427565F0
:1005F0006E6F210037344C53303120546573746969
:100600006E672E2E2E004E414E442D3320427565CE
:100610006E6F210037344C53303120546573746948
:100620006E672E2E2E004E414E442D3420427565AD
:100630006E6F210037344C53303120546573746928
:100640006E672E2E2E004275656E6F732025690031
:10065000526567726573616E646F2E2E00003734C9
:100660004C5330342054657374696E672E2E2E00FF
:10067000323E566F6C76657200004E4F542D31201D
:100680004275656E6F21000037344C53303420546E
:10069000657374696E672E2E2E004E4F542D3220D6
:1006A0004275656E6F21000037344C53303420544E
:1006B000657374696E672E2E2E004E4F542D3320B5
:1006C0004275656E6F21000037344C53303420542E
:1006D000657374696E672E2E2E004E4F542D342094
:1006E0004275656E6F21000037344C53303420540E
:1006F000657374696E672E2E2E004E4F542D352073
:100700004275656E6F21000037344C5330342054ED
:10071000657374696E672E2E2E004E4F542D362051
:100720004275656E6F21000037344C5330342054CD
:10073000657374696E672E2E2E004275656E6F7339
:1007400020256900526567726573616E646F2E2E95
:100750000000526567726573616E646F2E2E000033
:10076000313E3734303720323E3734333000343E78
:100770003734313020333E4E6578740037344C5373
:1007800030372054657374696E672E2E2E00323E0A
:10079000566F6C76657200004255464645522D31C3
:1007A000204275656E6F210037344C53303720542A
:1007B000657374696E672E2E2E004255464645526B
:1007C0002D32204275656E6F210037344C5330371F
:1007D0002054657374696E672E2E2E00425546466E
:1007E00045522D33204275656E6F210037344C53CE
:1007F00030372054657374696E672E2E2E00425573
:10080000464645522D34204275656E6F21003734BF
:100810004C5330372054657374696E672E2E2E004A
:100820004255464645522D35204275656E6F210072
:1008300037344C5330372054657374696E672E2EED
:100840002E004255464645522D36204275656E6F44
:10085000210037344C5330372054657374696E6708
:100860002E2E2E004275656E6F732025690052652D
:1008700067726573616E646F2E2E000037344C53BF
:1008800031302054657374696E672E2E2E00323E0F
:10089000566F6C76657200004E414E442D312042F9
:1008A00075656E6F210037344C53313020546573B9
:1008B00074696E672E2E2E004E414E442D3220421A
:1008C00075656E6F210037344C5331302054657399
:1008D00074696E672E2E2E004E414E442D332042F9
:1008E00075656E6F210037344C5331302054657379
:1008F00074696E672E2E2E004275656E6F7320250B
:100900006900526567726573616E646F2E2E000018
:1009100037344C5333302054657374696E672E2E10
:100920002E00323E566F6C766572000037344C53A1
:100930003330204275656E6F2100526567726573B2
:10094000616E646F2E2E2E00526567726573616E44
:10095000646F2E2E2E00313E3734323020323E3737
:1009600034323100343E3734313120333E5B4D6513
:100970006E755D0037344C533131205465737469A2
:100980006E672E2E2E00323E566F6C76657200001A
:10099000414E442D31204275656E6F210000373481
:1009A0004C5331312054657374696E672E2E2E00BE
:1009B000414E442D32204275656E6F210000373460
:1009C0004C5331312054657374696E672E2E2E009E
:1009D000414E442D33204275656E6F21000037343F
:1009E0004C5331312054657374696E672E2E2E007E
:1009F0004275656E6F732025690052656772657375
:100A0000616E646F2E2E000037344C533230205408
:100A1000657374696E672E2E2E00323E566F6C76AB
:100A2000657200004E414E442D31204275656E6F57
:100A3000210037344C5332302054657374696E672B
:100A40002E2E2E004E414E442D32204275656E6F83
:100A5000210037344C5332302054657374696E670B
:100A60002E2E2E004275656E6F732025690052652B
:100A700067726573616E646F2E2E000037344C53BD
:100A800032312054657374696E672E2E2E00323E0B
:100A9000566F6C7665720000414E442D31204275D0
:100AA000656E6F21000037344C533231205465732A
:100AB00074696E672E2E2E00414E442D32204275F1
:100AC000656E6F2100002037344C5332312054655D
:100AD0007374696E672E2E2E00004275656E6F73FB
:100AE00020256900526567726573616E646F2E2EF2
:100AF00000002041443632302054657374696E67BB
:100B00002E2E2E0020563A25302E32662E20323ED2
:100B100052657400313E35353520323E4C4D32320F
:100B20003400343E37343120333E4E657874000053
:100B30003535352054657374696E672E2E2E00008E
:100B4000323E566F6C7665720000313E3535352089
:100B5000323E4C4D32323400343E37343120333E55
:100B60004E65787400005469656D706F3A20256C8D
:100B700075004D616C6F20256900323E566F6C76B2
:100B8000657200004275656E6F2025690000323E77
:100B9000566F6C76657200004C4D323234205465CD
:100BA0007374696E672E2E2E0000323E566F6C767F
:100BB00065720000416D704F702D31204275656E79
:100BC0006F2100004C4D3232342054657374696ECD
:100BD000672E2E2E0000416D704F702D3220427511
:100BE000656E6F2100004C4D3232342054657374B1
:100BF000696E672E2E2E0000416D704F702D3320D0
:100C00004275656E6F2100004C4D323234205465C0
:100C10007374696E672E2E2E0000416D704F702D1B
:100C200034204275656E6F2100004C4D3232342005
:100C300054657374696E672E2E2E00004275656EC2
:100C40006F7320256900526567726573616E646F0A
:100C50002E2E0000526567726573616E646F2E2ED2
:100C60002E003734312054657374696E672E2E2E32
:100C70000000323E566F6C7665720000416D704F19
:100C800070204275656E6F21000052656772657352
:100C9000616E646F2E2E2E00526567726573616EF1
:100CA000646F2E2E2E00313E4C4D33353820323EAF
:100CB0004C4D33343800343E4C4D33323420333EC7
:100CC0004E65787400004C4D33353820546573748C
:100CD000696E672E2E2E0000323E566F6C7665725E
:100CE0000000416D704F702D31204275656E6F218F
:100CF00000004C4D3335382054657374696E672E8F
:100D00002E2E0000416D704F702D32204275656EA1
:100D10006F2100004C4D3335382054657374696E73
:100D2000672E2E2E00004275656E6F7320256900B8
:100D3000526567726573616E646F2E2E0000526596
:100D400067726573616E646F2E2E2E004C4D3334C6
:100D5000382054657374696E672E2E2E0000323E63
:100D6000566F6C7665720000416D704F702D3120AA
:100D70004275656E6F2100004C4D33343820546548
:100D80007374696E672E2E2E0000416D704F702DAA
:100D900032204275656E6F2100004C4D333438208F
:100DA00054657374696E672E2E2E0000416D704F6E
:100DB000702D33204275656E6F2100004C4D333429
:100DC000382054657374696E672E2E2E0000416DB5
:100DD000704F702D34204275656E6F210000204CDD
:100DE0004D3334382054657374696E672E2E2E008F
:100DF0004275656E6F732025690052656772657371
:100E0000616E646F2E2E0000526567726573616EAD
:100E1000646F2E2E2E004C4D333234205465737483
:100E2000696E672E2E2E0000323E566F6C7665720C
:100E30000000416D704F702D31204275656E6F213D
:100E400000004C4D3332342054657374696E672E44
:100E50002E2E0000416D704F702D32204275656E50
:100E60006F2100004C4D3332342054657374696E29
:100E7000672E2E2E0000416D704F702D332042756D
:100E8000656E6F2100004C4D33323420546573740D
:100E9000696E672E2E2E0000416D704F702D34202C
:100EA0004275656E6F2100004C4D3332342054651D
:100EB0007374696E672E2E2E00004275656E6F7317
:100EC00020256900526567726573616E646F2E2E0E
:100ED0002E00526567726573616E646F2E2E2E0050
:100EE000313E4E504E20323E504E5000333E4E6505
:100EF000787400004E504E2054657374696E672EEE
:100F00002E2E0000323E566F6C76657200004E50F9
:100F10004E204255454E4F00526567726573616EB3
:100F2000646F2E2E2E00526567726573616E646F5A
:100F30002E2E2E00504E502054657374696E672E0D
:100F40002E2E0000323E566F6C7665720000504EB9
:100F500050204255454E4F00526567726573616E71
:100F6000646F2E2E2E00526567726573616E646F1A
:100F70002E2E2E00313E4D4F5346204E0000323E65
:100F80004D4F5346205020333E4E657874004D4FF0
:100F9000534645542054657374696E672E2E2E0097
:100FA000323E566F6C76657200004D4F5346455485
:100FB000204255454E4F0000526567726573616E61
:100FC000646F2E2E2E00526567726573616E646FBA
:100FD0002E2E2E004D4F5346455420546573746990
:100FE0006E672E2E2E00323E566F6C7665720000B4
:100FF0004D4F53464554204255454E4F00005265D3
:1010000067726573616E646F2E2E2E005265677273
:101010006573616E646F2E2E2E00313E4D4F43334B
:101020003032302F333031302000333E4E6578740B
:1010300000004D4F432054657374696E672E2E2E49
:101040000000323E566F6C76657200004D4F4320B3
:101050004255454E4F00526567726573616E646F0D
:101060002E2E2E00526567726573616E646F2E2E90
:101070002E00EA6A510EE96EEF500EE0010E016E8D
:10108000006A002EFED7012EFBD74A0E006E002EFE
:10109000FED700D0EF2EF2D71200080E016E00002E
:1010A0008A92939200005E368A90D8B09380D8A03E
:1010B0009390938281A2FED7012EF1D700008A92ED
:1010C00093920000938000000000938281A2FED7DB
:1010D000016A000081B001808A9293928A90939075
:1010E00012005C50000A03E0010A21E041D05B38A5
:1010F000006EF00E001600501D105D6E5E6ECDDFAE
:1011000000005B38006EF00E0016005004091D1040
:101110005D6E5E6EC2DF00D05B38006EF00E0016B2
:101120000050FB0B1D105D6E5E6EB7DF21D05B388B
:10113000006EF00E0016005001091D105D6E5E6E0F
:10114000ACDF00005B38006EF00E001600500109A5
:1011500004091D105D6E5E6EA0DF00D05B38006E6E
:10116000F00E0016005001091D105D6E5E6E95DFD9
:10117000120093800000938200008A9093900000F8
:101180008A92939219C05EF088DF58385A6E0F0E1B
:101190005A165AC05BF059C05CF0A3DF58500F0BD1
:1011A0005A6E5B6E59C05CF09CDF93900000938296
:1011B00081A2FED7000000D0000093800000120042
:1011C000010E586E596AD5DF020E516E52DF010EC4
:1011D0001C6E120040C019F042C01AF041C01BF052
:1011E000F29CF29EF2BEFDD7320E516E42DF93802A
:1011F0000000938200008A90939000008A9293925C
:1012000019C05EF04ADF5B6A5C6A6BDF0F0E516EDD
:1012100030DF010E436E4350030809E3030E5B6E9B
:101220005C6A5FDF050E516E24DF432AF4D7020E9D
:101230005B6E5C6A56DF050E516E1BDF93900000FB
:10124000938281A2FED7000000D0000093800000AE
:10125000436A435003080DE3036A43505DEC00F01A
:10126000446E586E596A85DF050E516E02DF432ABF
:10127000F0D7A6DFC00EF21263EF0DF0956A8C6A0C
:10128000946A8B6A1200000E956E3F0E946E4BEFBF
:1012900009F0F4DFF8D7120052501A5C03E21AC0CA
:1012A00053F002D052C053F05350010A07E0030A32
:1012B00007E0010A08E0070A09E00BD0556A0AD0E6
:1012C000400E556E07D0140E556E04D0540E556E58
:1012D00001D0556A51501B5C03E21BC054F002D090
:1012E00051C054F0010E545C5524566E565080097E
:1012F000576E586E596A3DDF120050500C0A05E0D7
:10130000060A05E0020A0FE013D05ADF16D01C2AA5
:101310001C501A5C02E2010E1C6E010E516E1CC0C4
:1013200052F0BADF0AD0100E586E596A22DF05D08B
:1013300050C058F0010E596E1CDF12000900F55222
:101340000CE0F6CF40F0F7CF41F0F5CF50F0D5DF0D
:1013500040C0F6FF41C0F7FFF1D71200EA6A410E24
:10136000E96EEF500EE0010E016E006A002EFED70E
:10137000012EFBD74A0E006E002EFED700D0EF2EB6
:10138000F2D7120080A604D0010E016E15D012D043
:1013900080A804D0020E016E0FD00CD080AA04D019
:1013A000030E016E09D006D0948082A003D0040EF3
:1013B000016E02D0000E016E12000900F6CF45F05A
:1013C000F7CF46F0F5CF50F098DF45C0F6FF46C0A6
:1013D000F7FF442EF2D712004750016A465C03E241
:1013E00046C000F00CD0006A080E486E4636003643
:1013F0004750005CD8B0006E0136482EF7D7120077
:10140000200E41A8300E426E40C000F040AE08D021
:10141000001E002A00C040F02D0E426E418E418019
:10142000015040C046F0640E476ED6DF00C040F069
:10143000300E0124436E40C046F00A0E476ECCDFEA
:10144000300E0024456E300E0124446E42C000F080
:10145000300E435C04E0418241BE418412D042C060
:1014600043F0200E426E300E445C04E0418041BEE9
:10147000418207D0D8A4418004E143C044F0200E4B
:10148000436E41B405D041B206D041B007D009D077
:1014900042C050F032DF43C050F02FDF44C050F064
:1014A0002CDF45C050F029DF1200510E956E400E22
:1014B000946E956A8C6A946A8B6A61EF0AF0DEDE3C
:1014C000F4D712000C0E956E3F0E946E956A8C6ADE
:1014D000946A8B6A6EEF0AF0D1DEF4D7F9EF12F05E
:1014E0006A0E956E460E946E956A8C6A946A8B6A43
:1014F0007CEF0AF0C3DEF4D716EF15F06A0E956E96
:10150000460E946E956A950E8C6E946A820E8B6E62
:101510008CEF0AF0B3DEF2D7A0EF16F0280E956E2E
:10152000040E946E956A8C6A946A8B6A9AEF0AF03C
:10153000A5DEF4D7F7EF17F0280E956E040E946E23
:10154000956AD70E8C6E946AFB0E8B6EAAEF0AF02A
:1015500095DEF2D777EF19F0080E956E040E946EB3
:10156000956A8C6A946A8B6AB8EF0AF087DEF4D7C2
:1015700057EF1AF0080E956E040E946E956AF70EEA
:101580008C6E946AFB0E8B6EC8EF0AF077DEF2D792
:1015900012EF1BF0200E956E000E946E956A100EE1
:1015A0008C6E946A020E8B6ED8EF0AF067DEF2D76B
:1015B00012008E0E006E41C001F040C002F0036ABE
:1015C000015209E102C001F0026A080E005E0152F8
:1015D00002E1006A08D0D89001BE04D0023601367C
:1015E0000006F9D7019EFBEF1BF04D50D8B471D027
:1015F000006E5150D8B46DD0002604E3810E002651
:1016000068E204D07F0E005E64E363E04EC055F0F4
:101610005250551A4E8E528E50505402F4CF57F0FD
:101620004F505302F4CF03F0F3CF56F05402F3506F
:101630005726F4505622000E032250505302F35006
:101640005726F4505622000E026A032202224E5000
:101650005402F3505626F4500322000E02224E503C
:101660005302F3500326F4500222000E016A0122B5
:1016700050505202F3505626F4500322000E02221C
:1016800001224F505202F3500326F4500222000E62
:1016900001224E505202F3500226F4500122002A39
:1016A00001BE05D056360336023601360006000E5E
:1016B00056AE0AD0032A02220122015005E102504F
:1016C00003E1035001E1002A55BE018E55AE019E93
:1016D00004D0006A016A026A036A12004D50B6081B
:1016E0004D6E036A4EC051F04E8ED8904E324F323E
:1016F000503203320232013200324D2EF6D751AE53
:101700000BD0001E011E021E031E002AD8B4012A9F
:10171000D8B4022AD8B4032AFCEF0BF0D8B203D015
:10172000EA6A580EE96E006A016A026A036A586A38
:10173000596A5A6A5B6A57505610551054102CE07B
:10174000200E5C6ED890503651365236533658368D
:1017500059365A365B3657505B5C08E156505A5C36
:1017600005E15550595C02E15450585C0FE3545068
:10177000585E5550D8A0553C595E5650D8A0563C9E
:101780005A5E5750D8A0573C5B5ED8800036013671
:10179000023603365C2ED6D758C0EFFF59C0ECFF97
:1017A0005AC0ECFF5BC0ECFF1200E950456E44509C
:1017B000476E19E043C050F042C04FF041C04EF0B8
:1017C00040C04DF0546A536A200E526E820E516E24
:1017D0000CDF03C043F002C042F001C041F000C082
:1017E00040F0472EE7D743C050F042C04FF041C011
:1017F0004EF040C04DF072D703C043F002C042F03B
:1018000001C041F000C040F043AE0DD04506458A0E
:10181000401E411E421E431E402AD8B4412AD8B45D
:10182000422AD8B4432A3B0E4C6E9A0E4B6ECA0E17
:101830004A6E496A0A0E476E4450D8B4452AD88287
:10184000EA6A400EE96E43C053F042C052F041C014
:1018500051F040C050F04CC057F04BC056F04AC059
:1018600055F049C054F05ADF015000520FE14428AE
:10187000475C0CE045500CE00F0B475C01E037E2A1
:1018800045BE35D045BC04D0200E2DD0200E4516C7
:1018900045AA0CD0459A4450D8A445060050456E40
:1018A0002D0E506E2ADD4550006E456A4450475C4F
:1018B0000AE10050456E2E0E506E1FDD4550006E41
:1018C000200E4516000E300E45AA0DD0459A445004
:1018D000D8A445060050456E2D0E506E0EDD4550C5
:1018E000006E456A300E002600C050F006DDD8922A
:1018F0004CC053F04BC052F04AC051F049C050F0B8
:10190000576A566A556A0A0E546E08DF03C04CF0D7
:1019100002C04BF001C04AF000C049F0472E8FD7FB
:101920004FEF1CF0E950486E3B0E4F6E9A0E4E6E14
:10193000CA0E4D6E4C6A0A0E4A6ED882EA6A440E8E
:10194000E96E47C053F046C052F045C051F044C064
:1019500050F04FC057F04EC056F04DC055F04CC03F
:1019600054F0DCDE015000520FE14A50010A0CE055
:1019700048500BE00F0B4A5C01E00CE248BE0AD075
:1019800048BC03D0200E02D0486A300E002600C0AA
:1019900050F0B3DCD8924FC053F04EC052F04DC05F
:1019A00051F04CC050F0576A566A556A0A0E546E90
:1019B000B5DE03C04FF002C04EF001C04DF000C0D4
:1019C0004CF04A2EBAD70DEF1DF0000E956E020EA8
:1019D000946E956A8C6A946A8B6AF1EF0CF04EDC17
:1019E000F4D71200110E956E000E946E956A040ED7
:1019F0008C6E946A120E8B6E00EF0DF03FDCF2D706
:101A000039EF1FF0000E956E400E946E956A020E2F
:101A10008C6E946A8B6E0FEF0DF030DCF3D71200F2
:101A2000000E956E400E946E956A010E8C6E946A4F
:101A30008B6A1DEF0DF022DCF3D71200040E956EB9
:101A4000000E946E956A120E8C6E946A8B6A2BEF60
:101A50000DF014DCF3D75AEF24F0F86AD09E078E0D
:101A6000010E1C6E080E1D6E266A256AE60E246E97
:101A7000140E236E4E0E276E020E286E100E296E67
:101A80002A6A306A316A336A326AC150C00B0F0960
:101A9000C16E070EB46E1E6A600ED36ED350FF0E79
:101AA000926E400E956EFF0E946ED190860ED56E9E
:101AB000C00EF212F19C27C040F028C041F029C0AE
:101AC00042F0EAEF08F0C150C00B0E09C16EC050E1
:101AD000C00B0709C06EC08EC28049EC09F00C0E25
:101AE000506E0BDC516A010E526E4CEC09F0FE0E8A
:101AF000F66E000EF76E22DC516A020E526E4CEC4E
:101B000009F0060EF66E010EF76E18DCC80E416E77
:101B100025DC0C0E506E7DEC09F0516A010E526E00
:101B20004CEC09F0140EF66E010EF76E07DC516AEC
:101B3000020E526E4CEC09F0220EF66E010EF76E9C
:101B40009EEC09F0C80E416E09DC0C0E506E7DEC67
:101B500009F0516A010E526E4CEC09F02E0EF66E31
:101B6000010EF76E9EEC09F0516A020E526E4CECBB
:101B700009F03E0EF66E010EF76E9EEC09F0C80EEF
:101B8000416EAEEC09F00C0E506E7DEC09F0516A1E
:101B9000010E526E4CEC09F04A0EF66E010EF76E15
:101BA0009EEC09F0516A020E526E4CEC09F0580E90
:101BB000F66E010EF76E9EEC09F0C80E416EAEECAB
:101BC00009F00C0E506E7DEC09F0516A010E526E58
:101BD0004CEC09F0640EF66E010EF76E9EEC09F007
:101BE000516A020E526E4CEC09F0740EF66E010E44
:101BF000F76E9EEC09F0C80E416EAEEC09F00C0ECB
:101C0000506E00017DEC09F0516A010E526E4CECF1
:101C100009F07C0EF66E010EF76E9EEC09F0516A2B
:101C2000020E526E4CEC09F08A0EF66E010EF76E43
:101C30009EEC09F0C80E416EAEEC09F0C2EC09F062
:101C400001500208D8A4D9EF1BF0956A8C6A0C0EDB
:101C5000506E00017DEC09F0516A010E526E4CECA1
:101C600009F09A0EF66E010EF76E9EEC09F0516ABD
:101C7000020E526E4CEC09F0A40EF66E010EF76ED9
:101C80009EEC09F0C80E416EAEEC09F0C2EC09F012
:101C9000012C40D149EC09F00C0E956E3F0E946E6C
:101CA000956AF30E8C6E946AC00E8B6E0C0E506E9D
:101CB0007DEC09F0516A010E526E4CEC09F0B20E47
:101CC000F66E010EF76E9EEC09F0516A020E526E2E
:101CD0004CEC09F0C40EF66E010EF76E9EEC09F0A6
:101CE000040E406EFA0E416EAEEC09F0402EFAD7AB
:101CF000948282A224D00C0E506E7DEC09F0516AC1
:101D0000010E526E4CEC09F0CE0EF66E010EF76E1F
:101D10009EEC09F0516A020E526E4CEC09F0DC0E9A
:101D2000F66E010EF76E9EEC09F0020E406EFA0E92
:101D3000416EAEEC09F0402EFAD7010E31269484A4
:101D400082A424D00C0E506E7DEC09F0516A010E75
:101D5000526E4CEC09F0EE0EF66E010EF76E9EEC34
:101D600009F0516A020E526E4CEC09F0FC0EF66E50
:101D7000010EF76E9EEC09F0020E406EFA0E416EF7
:101D8000AEEC09F0402EFAD7010E3126958483A4DB
:101D900024D00C0E506E7DEC09F0516A010E526E8B
:101DA0004CEC09F00E0EF66E020EF76E9EEC09F08A
:101DB000516A020E526E4CEC09F01C0EF66E020EC9
:101DC000F76E9EEC09F0020E406EFA0E416EAEEC1C
:101DD00009F0402EFAD7010E3126958683A624D02D
:101DE0000C0E506E7DEC09F0516A010E526E4CECF7
:101DF00009F02E0EF66E020EF76E9EEC09F0516A97
:101E0000020E526E4CEC09F03C0EF66E020EF76EAE
:101E10009EEC09F0020E406EFA0E416EAEEC09F037
:101E2000402EFAD7010E31263150000848E249EC25
:101E300009F00C0E506E7DEC09F0516A010E526EE5
:101E40004CEC09F04E0EF66E020EF76E070E446E65
:101E5000DDEC09F031C040F0180E416E00EC0AF0E4
:101E6000516A020E526E4CEC09F0580EF66E020EDC
:101E7000F76E9EEC09F0040E406EFA0E416EAEEC69
:101E800009F0402EFAD7316A0C0E506E7DEC09F045
:101E9000516A010E526E4CEC09F0660EF66E020E9F
:101EA000F76E9EEC09F0516A020E526E4CEC09F08E
:101EB000700EF66E020EF76E9EEC09F02BD0C2EC9F
:101EC00009F00150020825E149EC09F00C0E506EB2
:101ED0007DEC09F0516A010E526E4CEC09F07E0E59
:101EE000F66E020EF76E9EEC09F0516A020E526E0B
:101EF0004CEC09F08E0EF66E020EF76E9EEC09F0B9
:101F0000040E406EFA0E416EAEEC09F0402EFAD788
:101F100001D0C0D6C2EC09F001500308D8A4D3EF19
:101F20001BF00C0E506E00017DEC09F0516A010EA1
:101F3000526E4CEC09F09C0EF66E020EF76E9EECA3
:101F400009F0516A020E526E4CEC09F0AA0EF66EC0
:101F5000020EF76E9EEC09F0C80E416EAEEC09F071
:101F6000C2EC09F0012C03D15FEC0AF00C0E506EAC
:101F70007DEC09F0516A010E526E4CEC09F0B80E7E
:101F8000F66E020EF76E9EEC09F0516A020E526E6A
:101F90004CEC09F0CA0EF66E020EF76E9EEC09F0DC
:101FA000040E406EFA0E416EAEEC09F0402EFAD7E8
:101FB000958083A024D00C0E506E7DEC09F0516A00
:101FC000010E526E4CEC09F0D40EF66E020EF76E56
:101FD0009EEC09F0516A020E526E4CEC09F0E20ED2
:101FE000F66E020EF76E9EEC09F0020E406EFA0ECF
:101FF000416EAEEC09F0402EFAD7010E3126948CDA
:1020000082AC24D00C0E506E7DEC09F0516A010EAA
:10201000526E4CEC09F0F40EF66E020EF76E9EEC6A
:1020200009F0516A020E526E4CEC09F0020EF66E87
:10203000030EF76E9EEC09F0020E406EFA0E416E32
:10204000AEEC09F0402EFAD7010E3126958C83AC08
:1020500024D00C0E506E7DEC09F0516A010E526EC8
:102060004CEC09F0140EF66E030EF76E9EEC09F0C0
:10207000516A020E526E4CEC09F0220EF66E030EFF
:10208000F76E9EEC09F0020E406EFA0E416EAEEC59
:1020900009F0402EFAD7010E3126958883A824D066
:1020A0000C0E506E7DEC09F0516A010E526E4CEC34
:1020B00009F0340EF66E030EF76E9EEC09F0516ACD
:1020C000020E526E4CEC09F0420EF66E030EF76EE5
:1020D0009EEC09F0020E406EFA0E416EAEEC09F075
:1020E000402EFAD7010E3126315000082EE20C0E98
:1020F000506E7DEC09F0516A010E526E4CEC09F005
:10210000540EF66E030EF76E070E446EDDEC09F00A
:1021100031C040F0180E416E00EC0AF0516A020E18
:10212000526E4CEC09F05E0EF66E030EF76E9EECEE
:1021300009F049EC09F0040E406EFA0E416EAEEC67
:1021400009F0402EFAD7316AECD6C2EC09F0015002
:1021500002080CE149EC09F0316A040E406EFA0EF7
:10216000416EAEEC09F0402EFAD7DBD621D7C2EC97
:1021700009F001500208D8A405D10C0E956E360E58
:10218000946E956A510E8C6E946A400E8B6E949488
:102190008B940C0E506E7DEC09F0516A010E526E5C
:1021A0004CEC09F06C0EF66E030EF76E9EEC09F027
:1021B000516A020E526E4CEC09F07E0EF66E030E62
:1021C000F76E9EEC09F0040E406EFA0E416EAEEC16
:1021D00009F0402EFAD7948282A224D00C0E506EC1
:1021E0007DEC09F0516A010E526E4CEC09F0880E3C
:1021F000F66E030EF76E9EEC09F0516A020E526EF7
:102200004CEC09F0960EF66E030EF76E9EEC09F09C
:10221000020E406EFA0E416EAEEC09F0402EFAD777
:10222000010E3126948482A424D00C0E506E7DECD5
:1022300009F0516A010E526E4CEC09F0A80EF66ED0
:10224000030EF76E9EEC09F0516A020E526E4CECD2
:1022500009F0B60EF66E030EF76E9EEC09F0020E54
:10226000406EFA0E416EAEEC09F0402EFAD7010E28
:102270003126958683A624D00C0E506E7DEC09F095
:10228000516A010E526E4CEC09F0C80EF66E030E48
:10229000F76E9EEC09F0516A020E526E4CEC09F09A
:1022A000D60EF66E030EF76E9EEC09F0020E406E2F
:1022B000FA0E416EAEEC09F0402EFAD7010E31262F
:1022C000958483A424D00C0E506E7DEC09F0516AE5
:1022D000010E526E4CEC09F0E80EF66E030EF76E2E
:1022E0009EEC09F0516A020E526E4CEC09F0F60EAB
:1022F000F66E030EF76E9EEC09F0020E406EFA0EBB
:10230000416EAEEC09F0402EFAD7010E3126315065
:1023100000082EE249EC09F00C0E506E7DEC09F03D
:10232000516A010E526E4CEC09F0080EF66E040E66
:10233000F76E070E446EDDEC09F031C040F0180E68
:10234000416E00EC0AF0516A020E526E4CEC09F03C
:10235000120EF66E040EF76E9EEC09F0040E406E3F
:10236000FA0E416EAEEC09F0402EFAD7316AD9D59B
:10237000C2EC09F00150020804E149EC09F0316AAD
:10238000D0D529D7C2EC09F001500408D8A405D152
:102390000C0E956E360E946E956A510E8C6E946A84
:1023A000400E8B6E94948B940C0E506E7DEC09F065
:1023B000516A010E526E4CEC09F0200EF66E040EBE
:1023C000F76E9EEC09F0516A020E526E4CEC09F069
:1023D000320EF66E040EF76E9EEC09F0040E406E9F
:1023E000FA0E416EAEEC09F0402EFAD7948282A22A
:1023F00024D00C0E506E7DEC09F0516A010E526E25
:102400004CEC09F03C0EF66E040EF76E9EEC09F0F3
:10241000516A020E526E4CEC09F0480EF66E040E34
:10242000F76E9EEC09F0020E406EFA0E416EAEECB5
:1024300009F0402EFAD7010E3126948482A424D0CC
:102440000C0E506E7DEC09F0516A010E526E4CEC90
:1024500009F05A0EF66E040EF76E9EEC09F0516A02
:10246000020E526E4CEC09F0660EF66E040EF76E1C
:102470009EEC09F0020E406EFA0E416EAEEC09F0D1
:10248000402EFAD7010E3126958683A624D00C0E55
:10249000506E7DEC09F0516A010E526E4CEC09F061
:1024A000780EF66E040EF76E9EEC09F0516A020E7D
:1024B000526E4CEC09F0840EF66E040EF76E9EEC34
:1024C00009F0020E406EFA0E416EAEEC09F0402E9D
:1024D000FAD7010E3126958483A424D00C0E506EB9
:1024E0007DEC09F0516A010E526E4CEC09F0960E2B
:1024F000F66E040EF76E9EEC09F0516A020E526EF3
:102500004CEC09F0A20EF66E040EF76E9EEC09F08C
:10251000020E406EFA0E416EAEEC09F0402EFAD774
:10252000010E3126315000082EE249EC09F00C0E64
:10253000506E7DEC09F0516A010E526E4CEC09F0C0
:10254000B40EF66E040EF76E070E446EDDEC09F065
:1025500031C040F0180E416E00EC0AF0516A020ED4
:10256000526E4CEC09F0BE0EF66E040EF76E9EEC49
:1025700009F0040E406EFA0E416EAEEC09F0402EEA
:10258000FAD7316ACED4C2EC09F00150020804E156
:1025900049EC09F0316AC5D429D7C2EC09F00150E1
:1025A0000308D8A4D1EF1BF00C0E506E00017DEC97
:1025B00009F0516A010E526E4CEC09F0CC0EF66E29
:1025C000040EF76E9EEC09F0516A020E526E4CEC4E
:1025D00009F0DA0EF66E040EF76E9EEC09F0C80EE6
:1025E000416EAEEC09F0C2EC09F0012C0ED16CEF9B
:1025F0000AF00C0E506E7DEC09F0516A010E526E1D
:102600004CEC09F0E80EF66E040EF76E9EEC09F045
:10261000516A020E526E4CEC09F0FA0EF66E040E80
:10262000F76E9EEC09F0040E406EFA0E416EAEECB1
:1026300009F0402EFAD7948282A224D00C0E506E5C
:102640007DEC09F0516A010E526E4CEC09F0040E5B
:10265000F66E050EF76E9EEC09F0516A020E526E90
:102660004CEC09F0120EF66E050EF76E9EEC09F0BA
:10267000020E406EFA0E416EAEEC09F0402EFAD713
:10268000010E3126948482A424D00C0E506E7DEC71
:1026900009F0516A010E526E4CEC09F0240EF66EF0
:1026A000050EF76E9EEC09F0516A020E526E4CEC6C
:1026B00009F0320EF66E050EF76E9EEC09F0020E72
:1026C000406EFA0E416EAEEC09F0402EFAD7010EC4
:1026D0003126958483A424D00C0E506E7DEC09F035
:1026E000516A010E526E4CEC09F0440EF66E050E66
:1026F000F76E9EEC09F0516A020E526E4CEC09F036
:10270000520EF66E050EF76E9EEC09F0020E406E4C
:10271000FA0E416EAEEC09F0402EFAD7010E3126CA
:10272000958683A624D00C0E506E7DEC09F0516A7C
:10273000010E526E4CEC09F0640EF66E050EF76E4B
:102740009EEC09F0516A020E526E4CEC09F0720ECA
:10275000F66E050EF76E9EEC09F0020E406EFA0E54
:10276000416EAEEC09F0402EFAD7010E3126315001
:1027700000082CE20C0E506E7DEC09F0516A010E3F
:10278000526E4CEC09F0840EF66E050EF76E070ED5
:10279000446EDDEC09F031C040F0180E416E00ECE3
:1027A0000AF0516A020E526E4CEC09F08E0EF66E73
:1027B000050EF76E9EEC09F0040E406EFA0E416EA7
:1027C000AEEC09F0402EFAD7316AEED6C2EC09F031
:1027D0000150020819E10C0E506E7DEC09F0516AAF
:1027E000020E526E4CEC09F09C0EF66E050EF76E62
:1027F0009EEC09F0040E406EFA0E416EAEEC09F04C
:10280000402EFAD7316AD0D616D7C2EC09F0015063
:102810000208D8A403D15FEC0AF00C0E506E7DECD8
:1028200009F0516A010E526E4CEC09F0AA0EF66ED8
:10283000050EF76E9EEC09F0516A020E526E4CECDA
:1028400009F0BC0EF66E050EF76E9EEC09F0040E54
:10285000406EFA0E416EAEEC09F0402EFAD795802C
:1028600083A024D00C0E506E7DEC09F0516A010E4D
:10287000526E4CEC09F0C60EF66E050EF76E9EEC2D
:1028800009F0516A020E526E4CEC09F0D40EF66E4D
:10289000050EF76E9EEC09F0020E406EFA0E416EC8
:1028A000AEEC09F0402EFAD7010E3126948C82ACA2
:1028B00024D00C0E506E7DEC09F0516A010E526E60
:1028C0004CEC09F0E60EF66E050EF76E9EEC09F084
:1028D000516A020E526E4CEC09F0F40EF66E050EC3
:1028E000F76E9EEC09F0020E406EFA0E416EAEECF1
:1028F00009F0402EFAD7010E3126958C83AC24D0F6
:102900000C0E506E7DEC09F0516A010E526E4CECCB
:1029100009F0060EF66E060EF76E9EEC09F0516A8F
:10292000020E526E4CEC09F0140EF66E060EF76EA7
:102930009EEC09F0020E406EFA0E416EAEEC09F00C
:10294000402EFAD7010E3126958883A824D00C0E8C
:10295000506E7DEC09F0516A010E526E4CEC09F09C
:10296000260EF66E060EF76E9EEC09F0516A020E08
:10297000526E4CEC09F0340EF66E060EF76E9EECBD
:1029800009F0020E406EFA0E416EAEEC09F0402ED8
:10299000FAD7010E3126315000082EE249EC09F039
:1029A0000C0E506E7DEC09F0516A010E526E4CEC2B
:1029B00009F0460EF66E060EF76E070E446EDDEC5D
:1029C00009F031C040F0180E416E00EC0AF0516A77
:1029D000020E526E4CEC09F0500EF66E060EF76EBB
:1029E0009EEC09F0040E406EFA0E416EAEEC09F05A
:1029F000402EFAD7316AD8D5C2EC09F0015002084E
:102A00000CE149EC09F0316A040E406EFA0E416E99
:102A1000AEEC09F0402EFAD7C7D521D7C2EC09F0A9
:102A200001500408D8A460D17AEF0AF00C0E506E61
:102A30007DEC09F0516A010E526E4CEC09F05E0E0D
:102A4000F66E060EF76E9EEC09F0516A020E526E9B
:102A50004CEC09F0700EF66E060EF76E9EEC09F067
:102A6000020E406EFA0E416EAEEC09F0402EFAD71F
:102A7000958283A224D00C0E506E7DEC09F0516A31
:102A8000010E526E4CEC09F07A0EF66E060EF76EE1
:102A90009EEC09F0516A020E526E4CEC09F0880E61
:102AA000F66E060EF76E9EEC09F0020E406EFA0E00
:102AB000416EAEEC09F0402EFAD7010E3126948C0F
:102AC00082AC24D00C0E506E7DEC09F0516A010EE0
:102AD000526E4CEC09F09A0EF66E060EF76E9EECF6
:102AE00009F0516A020E526E4CEC09F0A80EF66E17
:102AF000060EF76E9EEC09F0020E406EFA0E416E65
:102B0000AEEC09F0402EFAD7010E3126948482A44F
:102B100024D00C0E506E7DEC09F0516A010E526EFD
:102B20004CEC09F0BA0EF66E060EF76E9EEC09F04C
:102B3000516A020E526E4CEC09F0C80EF66E060E8B
:102B4000F76E9EEC09F0020E406EFA0E416EAEEC8E
:102B500009F0402EFAD7010E3126958683A624D09F
:102B60000C0E506E7DEC09F0516A010E526E4CEC69
:102B700009F0DA0EF66E060EF76E9EEC09F0516A59
:102B8000020E526E4CEC09F0E80EF66E060EF76E71
:102B90009EEC09F0020E406EFA0E416EAEEC09F0AA
:102BA000402EFAD7010E3126958C83AC24D00C0E22
:102BB000506E7DEC09F0516A010E526E4CEC09F03A
:102BC000FA0EF66E060EF76E9EEC09F0516A020ED2
:102BD000526E4CEC09F0080EF66E070EF76E9EEC86
:102BE00009F0020E406EFA0E416EAEEC09F0402E76
:102BF000FAD7010E3126958A83AA24D00C0E506E86
:102C00007DEC09F0516A010E526E4CEC09F01A0E7F
:102C1000F66E070EF76E9EEC09F0516A020E526EC8
:102C20004CEC09F0280EF66E070EF76E9EEC09F0DC
:102C3000020E406EFA0E416EAEEC09F0402EFAD74D
:102C4000010E3126315000082EE249EC09F00C0E3D
:102C5000506E7DEC09F0516A010E526E4CEC09F099
:102C60003A0EF66E070EF76E070E446EDDEC09F0B5
:102C700031C040F0180E416E00EC0AF0516A020EAD
:102C8000526E4CEC09F0440EF66E070EF76E9EEC99
:102C900009F0040E406EFA0E416EAEEC09F0402EC3
:102CA000FAD7316A81D4C2EC09F0015002081BE165
:102CB0000C0E506E7DEC09F0516A020E526E4CEC17
:102CC00009F0520EF66E070EF76E9EEC09F049EC15
:102CD00009F0316A040E406EFA0E416EAEEC09F056
:102CE000402EFAD761D4C4D6C2EC09F001500308D3
:102CF000D8A4CFEF1BF00C0E506E00017DEC09F054
:102D0000516A010E526E4CEC09F0600EF66E070E21
:102D1000F76E9EEC09F0516A020E526E4CEC09F00F
:102D20006E0EF66E070EF76E9EEC09F0C80E416E41
:102D3000AEEC09F0C2EC09F0012C51D18AEF0AF097
:102D40000C0E506E7DEC09F0516A010E526E4CEC87
:102D500009F07C0EF66E070EF76E9EEC09F0516AD4
:102D6000020E526E4CEC09F08E0EF66E070EF76EE8
:102D70009EEC09F0040E406EFA0E416EAEEC09F0C6
:102D8000402EFAD7958283A224D00C0E506E7DEC93
:102D900009F0516A010E526E4CEC09F0980EF66E75
:102DA000070EF76E9EEC09F0516A020E526E4CEC63
:102DB00009F0A80EF66E070EF76E9EEC09F0020EF3
:102DC000406EFA0E416EAEEC09F0402EFAD7010EBD
:102DD0003126948C82AC24D00C0E506E7DEC09F020
:102DE000516A010E526E4CEC09F0BA0EF66E070EE7
:102DF000F76E9EEC09F0516A020E526E4CEC09F02F
:102E0000CA0EF66E070EF76E9EEC09F0020E406ECB
:102E1000FA0E416EAEEC09F0402EFAD7010E3126C3
:102E2000948482A424D00C0E506E7DEC09F0516A7B
:102E3000010E526E4CEC09F0DC0EF66E070EF76ECA
:102E40009EEC09F0516A020E526E4CEC09F0EC0E49
:102E5000F66E070EF76E9EEC09F0020E406EFA0E4B
:102E6000416EAEEC09F0402EFAD7010E3126958660
:102E700083A624D00C0E506E7DEC09F0516A010E31
:102E8000526E4CEC09F0FE0EF66E070EF76E9EECDD
:102E900009F0516A020E526E4CEC09F00E0EF66EFD
:102EA000080EF76E9EEC09F0020E406EFA0E416EAF
:102EB000AEEC09F0402EFAD7010E3126958C83AC8A
:102EC00024D00C0E506E7DEC09F0516A010E526E4A
:102ED0004CEC09F0200EF66E080EF76E9EEC09F031
:102EE000516A020E526E4CEC09F0300EF66E080E6E
:102EF000F76E9EEC09F0020E406EFA0E416EAEECDB
:102F000009F0402EFAD7010E3126958A83AA24D0E3
:102F10000C0E506E7DEC09F0516A010E526E4CECB5
:102F200009F0420EF66E080EF76E9EEC09F0516A3B
:102F3000020E526E4CEC09F0520EF66E080EF76E51
:102F40009EEC09F0020E406EFA0E416EAEEC09F0F6
:102F5000402EFAD7010E3126315000082EE249ECFE
:102F600009F00C0E506E7DEC09F0516A010E526EA4
:102F70004CEC09F0640EF66E080EF76E070E446E08
:102F8000DDEC09F031C040F0180E416E00EC0AF0A3
:102F9000516A020E526E4CEC09F06E0EF66E080E7F
:102FA000F76E9EEC09F0040E406EFA0E416EAEEC28
:102FB00009F0402EFAD7316A9ED6C2EC09F00150D2
:102FC00002080CE149EC09F0316A040E406EFA0E79
:102FD000416EAEEC09F0402EFAD78DD6D3D6C2ECB6
:102FE00009F001500408D8A4DCD098EF0AF00C0EC8
:102FF000506E7DEC09F0516A010E526E4CEC09F0F6
:103000007C0EF66E080EF76E9EEC09F0516A020E09
:10301000526E4CEC09F08E0EF66E080EF76E9EECBA
:1030200009F0040E406EFA0E416EAEEC09F0402E2F
:10303000FAD7958A83AA24D00C0E506E7DEC09F045
:10304000516A010E526E4CEC09F0980EF66E080EA5
:10305000F76E9EEC09F0516A020E526E4CEC09F0CC
:10306000A60EF66E080EF76E9EEC09F0020E406E8C
:10307000FA0E416EAEEC09F0402EFAD7010E312661
:10308000958683A624D00C0E506E7DEC09F0516A13
:10309000010E526E4CEC09F0B80EF66E080EF76E8B
:1030A0009EEC09F0516A020E526E4CEC09F0C60E0D
:1030B000F66E080EF76E9EEC09F0020E406EFA0EE8
:1030C000416EAEEC09F0402EFAD7010E3126948401
:1030D00082A424D00C0E506E7DEC09F0516A010ED2
:1030E000526E4CEC09F0D80EF66E080EF76E9EECA0
:1030F00009F0516A020E526E4CEC09F0E60EF66EC3
:10310000080EF76E9EEC09F0020E406EFA0E416E4C
:10311000AEEC09F0402EFAD7010E312631500008EE
:103120002EE249EC09F00C0E506E7DEC09F0516A6C
:10313000010E526E4CEC09F0F80EF66E080EF76EAA
:10314000070E446EDDEC09F031C040F0180E416E00
:1031500000EC0AF0516A020E526E4CEC09F0020EBD
:10316000F66E090EF76E9EEC09F0040E406EFA0E34
:10317000416EAEEC09F0402EFAD7316ABCD5C2ECF4
:1031800009F0015002080CE149EC09F0316A040E23
:10319000406EFA0E416EAEEC09F0402EFAD7ABD578
:1031A00048D7C2EC09F00150020874E149EC09F07B
:1031B000080E956E000E946E956A8C6A946A8B6AFE
:1031C0000C0E506E7DEC09F0516A010E526E4CEC03
:1031D00009F0100EF66E090EF76E9EEC09F0516ABA
:1031E000020E526E4CEC09F0220EF66E090EF76ECE
:1031F0009EEC09F0040E406EFA0E416EAEEC09F042
:10320000402EFAD7958683A625D00C0E506E7DEC05
:1032100009F0516A010E526E4CEC09F02C0EF66E5C
:10322000090EF76E9EEC09F0516A020E526E4CECDC
:1032300009F03A0EF66E090EF76E9EEC09F0040ED8
:10324000406EFA0E416EAEEC09F0402EFAD749EC12
:1032500009F051D5C2EC09F0015002081AE10C0E38
:10326000506E7DEC09F0516A020E526E4CEC09F082
:10327000480EF66E090EF76E9EEC09F0040E406ED5
:10328000FA0E416EAEEC09F0402EFAD749EC09F087
:1032900032D5B8D7C2EC09F001500308D8A47DD2CA
:1032A0000C0E506E00017DEC09F0516A010E526E59
:1032B0004CEC09F0560EF66E090EF76E9EEC09F016
:1032C000516A020E526E4CEC09F0640EF66E090E55
:1032D000F76E9EEC09F0C80E416EAEEC09F0C2EC40
:1032E00009F001500408D8A4DCD0A8EF0AF00C0EB5
:1032F000506E7DEC09F0516A010E526E4CEC09F0F3
:10330000740EF66E090EF76E9EEC09F0516A020E0D
:10331000526E4CEC09F0860EF66E090EF76E9EECBE
:1033200009F0040E406EFA0E416EAEEC09F0402E2C
:10333000FAD7958A83AA24D00C0E506E7DEC09F042
:10334000516A010E526E4CEC09F0900EF66E090EA9
:10335000F76E9EEC09F0516A020E526E4CEC09F0C9
:103360009E0EF66E090EF76E9EEC09F0020E406E90
:10337000FA0E416EAEEC09F0402EFAD7010E31265E
:10338000958683A624D00C0E506E7DEC09F0516A10
:10339000010E526E4CEC09F0B00EF66E090EF76E8F
:1033A0009EEC09F0516A020E526E4CEC09F0BE0E12
:1033B000F66E090EF76E9EEC09F0020E406EFA0EE4
:1033C000416EAEEC09F0402EFAD7010E31269484FE
:1033D00082A424D00C0E506E7DEC09F0516A010ECF
:1033E000526E4CEC09F0D00EF66E090EF76E9EECA4
:1033F00009F0516A020E526E4CEC09F0DE0EF66EC8
:10340000090EF76E9EEC09F0020E406EFA0E416E48
:10341000AEEC09F0402EFAD7010E312631500008EB
:103420002EE249EC09F00C0E506E7DEC09F0516A69
:10343000010E526E4CEC09F0F00EF66E090EF76EAE
:10344000070E446EDDEC09F031C040F0180E416EFD
:1034500000EC0AF0516A020E526E4CEC09F0FA0EC2
:10346000F66E090EF76E9EEC09F0040E406EFA0E31
:10347000416EAEEC09F0402EFAD7316A11D7C2EC9A
:1034800009F0015002080CE149EC09F0316A040E20
:10349000406EFA0E416EAEEC09F0402EFAD700D71E
:1034A00048D7C2EC09F0012CB5D0B6EF0AF00C0EEB
:1034B000506E7DEC09F0516A010E526E4CEC09F031
:1034C000080EF66E0A0EF76E9EEC09F0516A020EB7
:1034D000526E4CEC09F01A0EF66E0A0EF76E9EEC68
:1034E00009F0040E406EFA0E416EAEEC09F0402E6B
:1034F000FAD7958683A624D00C0E506E7DEC09F089
:10350000516A010E526E4CEC09F0240EF66E0A0E52
:10351000F76E9EEC09F0516A020E526E4CEC09F007
:10352000320EF66E0A0EF76E9EEC09F0020E406E39
:10353000FA0E416EAEEC09F0402EFAD7010E31269C
:10354000948482A424D00C0E506E7DEC09F0516A54
:10355000010E526E4CEC09F0440EF66E0A0EF76E38
:103560009EEC09F0516A020E526E4CEC09F0520EBC
:10357000F66E0A0EF76E9EEC09F0020E406EFA0E21
:10358000416EAEEC09F0402EFAD7010E31263150D3
:1035900000082EE249EC09F00C0E506E7DEC09F0AB
:1035A000516A010E526E4CEC09F0640EF66E0A0E72
:1035B000F76E070E446EDDEC09F031C040F0180ED6
:1035C000416E00EC0AF0516A020E526E4CEC09F0AA
:1035D0006E0EF66E0A0EF76E9EEC09F0040E406E4B
:1035E000FA0E416EAEEC09F0402EFAD7316A58D689
:1035F000C2EC09F0015002080CE149EC09F0316A13
:10360000040E406EFA0E416EAEEC09F0402EFAD771
:1036100047D66FD7C2EC09F001500208D8A4B5D044
:10362000C6EF0AF00C0E506E7DEC09F0516A010EE7
:10363000526E4CEC09F07C0EF66E0A0EF76E9EECA4
:1036400009F0516A020E526E4CEC09F08E0EF66EC5
:103650000A0EF76E9EEC09F0040E406EFA0E416EF3
:10366000AEEC09F0402EFAD7958683A624D00C0E36
:10367000506E7DEC09F0516A010E526E4CEC09F06F
:10368000980EF66E0A0EF76E9EEC09F0516A020E65
:10369000526E4CEC09F0A60EF66E0A0EF76E9EEC1A
:1036A00009F0020E406EFA0E416EAEEC09F0402EAB
:1036B000FAD7010E3126948482A424D00C0E506EC9
:1036C0007DEC09F0516A010E526E4CEC09F0B80E17
:1036D000F66E0A0EF76E9EEC09F0516A020E526EFB
:1036E0004CEC09F0C60EF66E0A0EF76E9EEC09F071
:1036F000020E406EFA0E416EAEEC09F0402EFAD783
:10370000010E3126315000082EE249EC09F00C0E72
:10371000506E7DEC09F0516A010E526E4CEC09F0CE
:10372000DA0EF66E0A0EF76E070E446EDDEC09F047
:1037300031C040F0180E416E00EC0AF0516A020EE2
:10374000526E4CEC09F0E40EF66E0A0EF76E9EEC2B
:1037500009F0040E406EFA0E416EAEEC09F0402EF8
:10376000FAD7316A9DD5C2EC09F0015002080CE18C
:1037700049EC09F0316A040E406EFA0E416EAEEC6F
:1037800009F0402EFAD78CD56FD7C2EC09F0015062
:10379000030802E1FFEF0DF0A2D59AEF16F0F3EF68
:1037A00012F0B0EF0FF046EF0EF0000125EF0EF033
:1037B0000001C2EC09F0012C8CD049EC09F0D6ECE8
:1037C0000AF0000E016EC250C30B0110C26E060E4D
:1037D000006E002EFED70000C282C2B2FED7C4CF58
:1037E00002F0C3CF01F0C4CF03F0C3CF40F0C4CF89
:1037F00041F0D9EF0AF003C037F002C036F001C043
:1038000035F000C034F037C050F036C04FF035C04E
:103810004EF034C04DF0BD0E546E1A0E536E200E95
:10382000526E770E516EF5EC0AF003C03BF002C009
:103830003AF001C039F000C038F03BC03FF03AC068
:103840003EF039C03DF038C03CF00C0E506E7DECBF
:1038500009F0516A010E526E4CEC09F0F20EF66E50
:103860000A0EF76E9EEC09F0516A020E526E4CEC95
:1038700009F0040EF66E0B0EF76E030E446EDDECCF
:1038800009F0C90EE96E3FC043F03EC042F03DC0B2
:1038900041F03CC040F0020E446ED5EF0BF00C0E30
:1038A000F66E0B0EF76E070E446EDDEC09F0020E9D
:1038B000406EFA0E416EAEEC09F0402EFAD7C2EC23
:1038C00009F00150020804E149EC09F0FFEF0DF0A6
:1038D00083D7C2EC09F001500308D8A4D5EF24F037
:1038E0000C0E506E00017DEC09F0516A010E526E13
:1038F0004CEC09F0140EF66E0B0EF76E9EEC09F010
:10390000516A020E526E4CEC09F0220EF66E0B0E4E
:10391000F76E9EEC09F0C80E416EAEEC09F0C2ECF9
:1039200009F0012CEDD049EC09F0956A010E8C6E7E
:103930002B80F29424C0D7FF23C0D6FF0000D650BE
:103940002C6ED7CF2DF02E6A2F6AF28AF0880C0EDB
:10395000506E7DEC09F0516A010E526E4CEC09F08C
:10396000300EF66E0B0EF76E9EEC09F0516A020EE9
:10397000526E4CEC09F0400EF66E0B0EF76E9EEC9C
:1039800009F02BA04FD0C2EC09F0015002081BE156
:103990000C0E506E7DEC09F0516A010E526E4CEC2B
:1039A00009F04A0EF66E0B0EF76E9EEC09F0516AA6
:1039B000020E526E4CEC09F0580EF66E0B0EF76EBE
:1039C0009EEC09F02FD0516A010E526E4CEC09F0BA
:1039D000D650D7CF03F0FF0A010F406E000ED75428
:1039E000416E010ED8A0E806426E000ED8A0E8068F
:1039F000436E660EF66E0B0EF76E080E446EDDEC2F
:103A000009F0410EE96E43C047F042C046F041C0A4
:103A100045F040C044F092EF0CF0640E416EAEEC05
:103A200009F0AFD72BB06CD02BB234D00C0E506E47
:103A30007DEC09F0516A010E526E4CEC09F0720EE9
:103A4000F66E0B0EF76E050E446EDDEC09F02AC023
:103A500040F0180E416E00EC0AF0516A020E526EF0
:103A60004CEC09F0956A8C6A7A0EF66E0B0EF76EC6
:103A70009EEC09F0C2EC09F0015002080AE1F29450
:103A800024C0D7FF23C0D6FF000049EC09F02A6A02
:103A900027D7F0D72BA234D00C0E506E7DEC09F056
:103AA000516A010E526E4CEC09F0840EF66E0B0E4C
:103AB000F76E060E446EDDEC09F02AC040F0180ED9
:103AC000416E00EC0AF0516A020E526E4CEC09F0A5
:103AD000956A8C6A8E0EF66E0B0EF76E9EEC09F0F0
:103AE000C2EC09F0015002080AE149EC09F02A6A27
:103AF000F29424C0D7FF23C0D6FF0000F1D6F0D740
:103B0000C2EC09F001500208D8A414D1EFEC0CF07B
:103B10000C0E506E7DEC09F0516A010E526E4CECA9
:103B200009F0980EF66E0B0EF76E9EEC09F0516AD6
:103B3000020E526E4CEC09F0AA0EF66E0B0EF76EEA
:103B40009EEC09F0020E406EFA0E416EAEEC09F0EA
:103B5000402EFAD7948282A224D00C0E506E7DECB7
:103B600009F0516A010E526E4CEC09F0B40EF66E7B
:103B70000B0EF76E9EEC09F0516A020E526E4CEC81
:103B800009F0C40EF66E0B0EF76E9EEC09F0020EF5
:103B9000406EFA0E416EAEEC09F0402EFAD7010EDF
:103BA0003026948482A424D00C0E506E7DEC09F053
:103BB000516A010E526E4CEC09F0D60EF66E0B0EE9
:103BC000F76E9EEC09F0516A020E526E4CEC09F051
:103BD000E60EF66E0B0EF76E9EEC09F0020E406ECE
:103BE000FA0E416EAEEC09F0402EFAD7010E3026E7
:103BF000958683A624D00C0E506E7DEC09F0516A98
:103C0000010E526E4CEC09F0F80EF66E0B0EF76ECC
:103C10009EEC09F0516A020E526E4CEC09F0080E4F
:103C2000F66E0C0EF76E9EEC09F0020E406EFA0E68
:103C3000416EAEEC09F0402EFAD7010E3026958881
:103C400083A824D00C0E506E7DEC09F0516A010E51
:103C5000526E4CEC09F01A0EF66E0C0EF76E9EECDE
:103C600009F0516A020E526E4CEC09F02A0EF66E03
:103C70000C0EF76E9EEC09F0020E406EFA0E416ECD
:103C8000AEEC09F0402EFAD7010E30263050000875
:103C900030E249EC09F0946A8B6A0C0E506E7DECB0
:103CA00009F0516A010E526E4CEC09F03C0EF66EB2
:103CB0000C0EF76E070E446EDDEC09F030C040F0DC
:103CC000180E416E00EC0AF0516A020E526E4CEC76
:103CD00009F0460EF66E0C0EF76E9EEC09F0040E1F
:103CE000406EFA0E416EAEEC09F0402EFAD7306A03
:103CF000F7D5C2EC09F0015002081BE149EC09F0CC
:103D0000306A0C0E506E7DEC09F0516A020E526E54
:103D10004CEC09F0540EF66E0C0EF76E9EEC09F0AA
:103D2000020E406EFA0E416EAEEC09F0402EFAD74C
:103D3000D7D510D7C2EC09F0015004086EE149EC68
:103D400009F0D6EC0AF00C0E506E7DEC09F0516AC9
:103D5000010E526E4CEC09F0620EF66E0C0EF76E10
:103D60009EEC09F0516A020E526E4CEC09F0720E94
:103D7000F66E0C0EF76E9EEC09F0040E406EFA0E15
:103D8000416EAEEC09F0402EFAD7958A83AA25D071
:103D900049EC09F00C0E506E7DEC09F0516A010EF1
:103DA000526E4CEC09F07C0EF66E0C0EF76E9EEC2B
:103DB00009F0516A020E526E4CEC09F08A0EF66E52
:103DC0000C0EF76E9EEC09F0020E406EFA0E416E7C
:103DD000AEEC09F0402EFAD783D5C2EC09F00150C1
:103DE00002081AE149EC09F00C0E506E7DEC09F066
:103DF000516A020E526E4CEC09F0980EF66E0C0EE3
:103E0000F76E9EEC09F0020E406EFA0E416EAEECBB
:103E100009F0402EFAD764D5B8D7C2EC09F00150AA
:103E20000308D8A4D3EF24F00C0E506E00017DECF3
:103E300009F0516A010E526E4CEC09F0A60EF66EB6
:103E40000C0EF76E9EEC09F0516A020E526E4CECAD
:103E500009F0B60EF66E0C0EF76E9EEC09F0C80E69
:103E6000416EAEEC09F0C2EC09F0012CC4D0FEEFBB
:103E70000CF00C0E506E7DEC09F0516A010E526E82
:103E80004CEC09F0C60EF66E0C0EF76E9EEC09F0C7
:103E9000516A020E526E4CEC09F0D80EF66E0C0E02
:103EA000F76E9EEC09F0040E406EFA0E416EAEEC19
:103EB00009F0402EFAD7958083A024D00C0E506EC6
:103EC0007DEC09F0516A010E526E4CEC09F0E20EE5
:103ED000F66E0C0EF76E9EEC09F0516A020E526EF1
:103EE0004CEC09F0F20EF66E0C0EF76E9EEC09F03B
:103EF000020E406EFA0E416EAEEC09F0402EFAD77B
:103F0000010E3026958883A824D00C0E506E7DECCF
:103F100009F0516A010E526E4CEC09F0040EF66E77
:103F20000D0EF76E9EEC09F0516A020E526E4CECCB
:103F300009F0140EF66E0D0EF76E9EEC09F0020EEF
:103F4000406EFA0E416EAEEC09F0402EFAD7010E2B
:103F50003026305000082EE249EC09F00C0E506E6D
:103F60007DEC09F0516A010E526E4CEC09F0260E00
:103F7000F66E0D0EF76E070E446EDDEC09F030C0E4
:103F800040F0180E416E00EC0AF0516A020E526EBB
:103F90004CEC09F0300EF66E0D0EF76E9EEC09F04B
:103FA000040E406EFA0E416EAEEC09F0402EFAD7C8
:103FB000306A3AD7C2EC09F0015002081BE149EC23
:103FC00009F0306A0C0E506E7DEC09F0516A020E59
:103FD000526E4CEC09F03E0EF66E0D0EF76E9EEC36
:103FE00009F0020E406EFA0E416EAEEC09F0402E62
:103FF000FAD71AD760D7C2EC09F001500208D8A44A
:1040000012D1EFEC0CF00C0E506E7DEC09F0516A01
:10401000010E526E4CEC09F04C0EF66E0D0EF76E62
:104020009EEC09F0516A020E526E4CEC09F05E0EE5
:10403000F66E0D0EF76E9EEC09F0040E406EFA0E51
:10404000416EAEEC09F0402EFAD7948282A224D0C1
:104050000C0E506E7DEC09F0516A010E526E4CEC64
:1040600009F0680EF66E0D0EF76E9EEC09F0516ABF
:10407000020E526E4CEC09F0780EF66E0D0EF76ED5
:104080009EEC09F0020E406EFA0E416EAEEC09F0A5
:10409000402EFAD7010E3026948482A424D00C0E30
:1040A000506E7DEC09F0516A010E526E4CEC09F035
:1040B0008A0EF66E0D0EF76E9EEC09F0516A020E36
:1040C000526E4CEC09F09A0EF66E0D0EF76E9EECE9
:1040D00009F0020E406EFA0E416EAEEC09F0402E71
:1040E000FAD7010E3026958683A624D00C0E506E8A
:1040F0007DEC09F0516A010E526E4CEC09F0AC0EE9
:10410000F66E0D0EF76E9EEC09F0516A020E526EBD
:104110004CEC09F0BC0EF66E0D0EF76E9EEC09F03D
:10412000020E406EFA0E416EAEEC09F0402EFAD748
:10413000010E3026958883A824D00C0E506E7DEC9D
:1041400009F0516A010E526E4CEC09F0CE0EF66E7B
:104150000D0EF76E9EEC09F0516A020E526E4CEC99
:1041600009F0DE0EF66E0D0EF76E9EEC09F0020EF3
:10417000406EFA0E416EAEEC09F0402EFAD7010EF9
:104180003026305000082EE249EC09F00C0E506E3B
:104190007DEC09F0516A010E526E4CEC09F0F00E04
:1041A000F66E0D0EF76E070E446EDDEC09F030C0B2
:1041B00040F0180E416E00EC0AF0516A020E526E89
:1041C0004CEC09F0FA0EF66E0D0EF76E9EEC09F04F
:1041D000040E406EFA0E416EAEEC09F0402EFAD796
:1041E000306A22D6C2EC09F0015002081BE149EC0A
:1041F00009F0306A0C0E506E7DEC09F0516A020E27
:10420000526E4CEC09F0080EF66E0E0EF76E9EEC38
:1042100009F0020E406EFA0E416EAEEC09F0402E2F
:10422000FAD702D612D7C2EC09F001500408D8A47C
:1042300012D1EFEC0CF00C0E506E7DEC09F0516ACF
:10424000010E526E4CEC09F0160EF66E0E0EF76E65
:104250009EEC09F0516A020E526E4CEC09F0280EE9
:10426000F66E0E0EF76E9EEC09F0040E406EFA0E1E
:10427000416EAEEC09F0402EFAD7948282A224D08F
:104280000C0E506E7DEC09F0516A010E526E4CEC32
:1042900009F0320EF66E0E0EF76E9EEC09F0516AC2
:1042A000020E526E4CEC09F0420EF66E0E0EF76ED8
:1042B0009EEC09F0020E406EFA0E416EAEEC09F073
:1042C000402EFAD7010E3026948482A424D00C0EFE
:1042D000506E7DEC09F0516A010E526E4CEC09F003
:1042E000540EF66E0E0EF76E9EEC09F0516A020E39
:1042F000526E4CEC09F0640EF66E0E0EF76E9EECEC
:1043000009F0020E406EFA0E416EAEEC09F0402E3E
:10431000FAD7010E3026958683A624D00C0E506E57
:104320007DEC09F0516A010E526E4CEC09F0760EEC
:10433000F66E0E0EF76E9EEC09F0516A020E526E8A
:104340004CEC09F0860EF66E0E0EF76E9EEC09F040
:10435000020E406EFA0E416EAEEC09F0402EFAD716
:10436000010E3026958883A824D00C0E506E7DEC6B
:1043700009F0516A010E526E4CEC09F0980EF66E7F
:104380000E0EF76E9EEC09F0516A020E526E4CEC66
:1043900009F0A80EF66E0E0EF76E9EEC09F0020EF6
:1043A000406EFA0E416EAEEC09F0402EFAD7010EC7
:1043B0003026305000082EE249EC09F00C0E506E09
:1043C0007DEC09F0516A010E526E4CEC09F0BA0E08
:1043D000F66E0E0EF76E070E446EDDEC09F030C07F
:1043E00040F0180E416E00EC0AF0516A020E526E57
:1043F0004CEC09F0C40EF66E0E0EF76E9EEC09F052
:10440000040E406EFA0E416EAEEC09F0402EFAD763
:10441000306A0AD5C2EC09F0015002081BE149ECF0
:1044200009F0306A0C0E506E7DEC09F0516A020EF4
:10443000526E4CEC09F0D20EF66E0E0EF76E9EEC3C
:1044400009F0020E406EFA0E416EAEEC09F0402EFD
:10445000FAD7EAD412D7C2EC09F001500308D8A465
:10446000A0D20C0E506E00017DEC09F0516A010ED5
:10447000526E4CEC09F0E00EF66E0E0EF76E9EECEE
:1044800009F0516A020E526E4CEC09F0EC0EF66E19
:104490000E0EF76E9EEC09F0640E416EAEEC09F064
:1044A000C2EC09F0012C6CD00DEC0DF00C0E506E2E
:1044B0007DEC09F0516A010E526E4CEC09F0F40EDD
:1044C000F66E0E0EF76E9EEC09F0516A020E526EF9
:1044D0004CEC09F0040EF66E0F0EF76E9EEC09F030
:1044E000040E406EFA0E416EAEEC09F0402EFAD783
:1044F000958083A025D049EC09F00C0E506E7DEC20
:1045000009F0516A010E526E4CEC09F00E0EF66E77
:104510000F0EF76E9EEC09F0516A020E526E4CECD3
:1045200009F0180EF66E0F0EF76E9EEC09F0040EF1
:10453000406EFA0E416EAEEC09F0402EFAD791D7DC
:10454000C2EC09F0015002081AE149EC09F00C0E26
:10455000506E7DEC09F0516A020E526E4CEC09F07F
:10456000260EF66E0F0EF76E9EEC09F0040E406EEE
:10457000FA0E416EAEEC09F0402EFAD772D7B8D7DA
:10458000C2EC09F00150020868E11BEC0DF00C0EC2
:10459000506E7DEC09F0516A010E526E4CEC09F040
:1045A000340EF66E0F0EF76E9EEC09F0516A020E95
:1045B000526E4CEC09F0440EF66E0F0EF76E9EEC48
:1045C00009F0040E406EFA0E416EAEEC09F0402E7A
:1045D000FAD7948C82AC25D049EC09F00C0E506EC1
:1045E0007DEC09F0516A010E526E4CEC09F04E0E52
:1045F000F66E0F0EF76E9EEC09F0516A020E526EC7
:104600004CEC09F0580EF66E0F0EF76E9EEC09F0AA
:10461000040E406EFA0E416EAEEC09F0402EFAD751
:1046200020D7C2EC09F00150020816E149EC09F06C
:10463000516A020E526E4CEC09F0660EF66E0F0EC9
:10464000F76E9EEC09F0040E406EFA0E416EAEEC71
:1046500009F0402EFAD705D7BCD7C2EC09F00150BB
:104660000308D8A49CD10C0E506E00017DEC09F01B
:10467000516A010E526E4CEC09F0740EF66E0F0E7C
:10468000F76E9EEC09F0516A020E526E4CEC09F086
:104690007E0EF66E0F0EF76E9EEC09F0640E416E04
:1046A000AEEC09F0C2EC09F0012C68D00DEC0DF075
:1046B0000C0E506E7DEC09F0516A010E526E4CECFE
:1046C00009F08E0EF66E0F0EF76E9EEC09F0516A31
:1046D000020E526E4CEC09F0A00EF66E0F0EF76E45
:1046E0009EEC09F0040E406EFA0E416EAEEC09F03D
:1046F000402EFAD7958083A025D049EC09F00C0E06
:10470000506E7DEC09F0516A010E526E4CEC09F0CE
:10471000AA0EF66E0F0EF76E9EEC09F0516A020EAD
:10472000526E4CEC09F0B80EF66E0F0EF76E9EEC62
:1047300009F0040E406EFA0E416EAEEC09F0402E08
:10474000FAD791D7C2EC09F00150020816E149EC02
:1047500009F0516A020E526E4CEC09F0C60EF66E6C
:104760000F0EF76E9EEC09F0040E406EFA0E416ECD
:10477000AEEC09F0402EFAD776D7BCD7C2EC09F0E0
:10478000015002086CE11BEC0DF00C0E506E7DEC3C
:1047900009F0516A010E526E4CEC09F0D40EF66E1F
:1047A0000F0EF76E9EEC09F0516A020E526E4CEC41
:1047B00009F0E60EF66E0F0EF76E9EEC09F0040E91
:1047C000406EFA0E416EAEEC09F0402EFAD794829C
:1047D00082A225D049EC09F00C0E506E7DEC09F058
:1047E000516A010E526E4CEC09F0F00EF66E0F0E8F
:1047F000F76E9EEC09F0516A020E526E4CEC09F015
:10480000FE0EF66E0F0EF76E9EEC09F0040E406E73
:10481000FA0E416EAEEC09F0402EFAD724D7C2EC66
:1048200009F0015002081AE10C0E506E7DEC09F0FF
:1048300049EC09F0516A020E526E4CEC09F00C0E74
:10484000F66E100EF76E9EEC09F0040E406EFA0E36
:10485000416EAEEC09F0402EFAD705D7B8D7C2ECBE
:1048600009F001500308D8A499D00C0E506E000135
:104870007DEC09F0516A010E526E4CEC09F01A0EF3
:10488000F66E100EF76E9EEC09F0516A020E526E33
:104890004CEC09F02A0EF66E100EF76E9EEC09F045
:1048A000640E416EAEEC09F0C2EC09F0012C6CD044
:1048B00029EF0DF00C0E506E7DEC09F0516A010EDF
:1048C000526E4CEC09F0320EF66E100EF76E9EEC46
:1048D00009F0516A020E526E4CEC09F0420EF66E6F
:1048E000100EF76E9EEC09F0040E406EFA0E416E4B
:1048F000AEEC09F0402EFAD7958483A425D049EC7C
:1049000009F00C0E506E7DEC09F0516A010E526EEA
:104910004CEC09F04C0EF66E100EF76E9EEC09F0A2
:10492000516A020E526E4CEC09F0560EF66E100EE5
:10493000F76E9EEC09F0040E406EFA0E416EAEEC7E
:1049400009F0402EFAD791D7C2EC09F001500208C5
:104950001AE10C0E506E7DEC09F049EC09F0516A39
:10496000020E526E4CEC09F0640EF66E100EF76EED
:104970009EEC09F0040E406EFA0E416EAEEC09F0AA
:10498000402EFAD772D7B8D7C2EC09F0015003080D
:1049900004E149EC09F0FFEF0DF086D783D680D50E
:1049A0007FD533EF1FF08FEF1CF01EEF0EF00001EC
:0649B000FFEF0DF0030013
:020000040030CA
:0E0000003FC93E1E0087A1000FC00FE00F4059
:00000001FF
;PIC18F4550
;CRC=70F1  CREATED="22-abr.-25 23:52"
