:040000001DEF0DF0F3
:08000800046ED8CF05F0E0CF33
:1000100006F00001E9CF0CF0EACF07F0E1CF08F0DD
:10002000E2CF09F0D9CF0AF0DACF0BF0F3CF12F01C
:10003000F4CF13F0FACF14F0F5CF15F0F6CF16F099
:10004000F7CF17F000C00EF001C00FF002C010F0A3
:1000500003C011F0F2AA30EF00F0F2B46DEF00F03F
:10006000F0A836EF00F0F0B267EF00F00EC000F03D
:100070000FC001F010C002F011C003F00CC0E9FF86
:1000800007C0EAFF078E08C0E1FF09C0E2FF0AC00F
:10009000D9FF0BC0DAFF12C0F3FF13C0F4FF14C086
:1000A000FAFF15C0F5FF16C0F6FF17C0F7FF0450A2
:1000B00006C0E0FF05C0D8FF1000F76ACA0FF66E51
:1000C000000EF7220900F5501200280C0106010E5F
:1000D0002A26F092F09236EF00F0F098F29A2B90E8
:1000E0002A50090802E22B8201D02B9224C0D7FFAC
:1000F00023C0D6FF0000F294F29436EF00F0554E84
:100100004558504F000042415251554953494D45C1
:10011000544F000044616E69656C61204361F16178
:1001200073005B446576656C6F7065725D00476156
:10013000627269656C2047696D656E657A005B4423
:100140006576656C6F7065725D004361726C6F738C
:100150002047756564657A005B446576656C6F70F1
:1001600065725D004361726C6F73205A616D6272DB
:10017000616E6F005B5475746F725D005B4D454E30
:10018000555D2020323E54544C00313E41443632BD
:100190003020333E4E65787400004D454E55205456
:1001A000544C0000313E3734303820333E4E6578B1
:1001B000740037344C5330382054657374696E675B
:1001C0002E2E2E00323E566F6C7665720000414E28
:1001D000442D31204275656E6F21000037344C5339
:1001E00030382054657374696E672E2E2E00414E90
:1001F000442D32204275656E6F21000037344C5318
:1002000030382054657374696E672E2E2E00414E6F
:10021000442D33204275656E6F21000037344C53F6
:1002200030382054657374696E672E2E2E00414E4F
:10023000442D34204275656E6F21000037344C53D5
:1002400030382054657374696E672E2E2E00427507
:10025000656E6F7320256900526567726573616E04
:10026000646F2E2E00004D454E552054544C000016
:10027000313E3734303820333E4E657874004D457A
:100280004E55205052494E434950414C0000313E9A
:100290003734303820333E4E65787400313E373481
:1002A000303220323E3734383600343E3734333241
:1002B00020333E4E6578740037344C53303220542E
:1002C000657374696E672E2E2E00323E566F6C7603
:1002D000657200004E4F522D31204275656E6F21C0
:1002E000000037344C5330322054657374696E67A4
:1002F0002E2E2E004E4F522D32204275656E6F21EC
:10030000000037344C5330322054657374696E6783
:100310002E2E2E004E4F522D33204275656E6F21CA
:10032000000037344C5330322054657374696E6763
:100330002E2E2E004E4F522D34204275656E6F21A9
:10034000000037344C5330322054657374696E6743
:100350002E2E2E004275656E6F7320256900526542
:1003600067726573616E646F2E2E000037344C53D4
:1003700038362054657374696E672E2E2E00323E17
:10038000566F6C7665720000584F522D31204275C1
:10039000656E6F21000037344C5338362054657336
:1003A00074696E672E2E2E00584F522D32204275E2
:1003B000656E6F21000037344C5338362054657316
:1003C00074696E672E2E2E00584F522D33204275C1
:1003D000656E6F21000037344C53383620546573F6
:1003E00074696E672E2E2E00584F522D34204275A0
:1003F000656E6F21000037344C53383620546573D6
:1004000074696E672E2E2E004275656E6F732025FF
:100410006900526567726573616E646F2E2E00000D
:1004200037344C5333322054657374696E672E2E03
:100430002E00323E566F6C76657200004F522D31A1
:10044000204275656E6F210037344C53333220548F
:10045000657374696E672E2E2E004F522D32204226
:1004600075656E6F210037344C53333220546573F9
:1004700074696E672E2E2E004F522D332042756503
:100480006E6F210037344C533332205465737469D6
:100490006E672E2E2E004F522D34204275656E6FE2
:1004A000210037344C5333322054657374696E67BE
:1004B0002E2E2E004275656E6F73202569005265E1
:1004C00067726573616E646F2E2E0000313E3734A3
:1004D000303020323E3734303100343E373430341F
:1004E00020333E4E6578740037344C5330302054FE
:1004F000657374696E672E2E2E00323E566F6C76D1
:10050000657200004E414E442D31204275656E6F7C
:10051000210037344C5330302054657374696E6752
:100520002E2E2E004E414E442D32204275656E6FA8
:10053000210037344C5330302054657374696E6732
:100540002E2E2E004E414E442D33204275656E6F87
:10055000210037344C5330302054657374696E6712
:100560002E2E2E004E414E442D34204275656E6F66
:10057000210037344C5330302054657374696E67F2
:100580002E2E2E004275656E6F7320256900526510
:1005900067726573616E646F2E2E0000526567721C
:1005A0006573616E646F2E2E000037344C5330310A
:1005B0002054657374696E672E2E2E00323E566F7E
:1005C0006C76657200004E414E442D3120427565B7
:1005D0006E6F210037344C53303120546573746989
:1005E0006E672E2E2E004E414E442D3220427565F0
:1005F0006E6F210037344C53303120546573746969
:100600006E672E2E2E004E414E442D3320427565CE
:100610006E6F210037344C53303120546573746948
:100620006E672E2E2E004E414E442D3420427565AD
:100630006E6F210037344C53303120546573746928
:100640006E672E2E2E004275656E6F732025690031
:10065000526567726573616E646F2E2E000052657D
:1006600067726573616E646F2E2E000037344C53D1
:1006700030342054657374696E672E2E2E00323E1E
:10068000566F6C76657200004E4F542D31204275C6
:10069000656E6F21000037344C533034205465733D
:1006A00074696E672E2E2E004E4F542D32204275E7
:1006B000656E6F21000037344C533034205465731D
:1006C00074696E672E2E2E004E4F542D33204275C6
:1006D000656E6F21000037344C53303420546573FD
:1006E00074696E672E2E2E004E4F542D34204275A5
:1006F000656E6F21000037344C53303420546573DD
:1007000074696E672E2E2E004E4F542D3520427583
:10071000656E6F21000037344C53303420546573BC
:1007200074696E672E2E2E004E4F542D3620427562
:10073000656E6F21000037344C533034205465739C
:1007400074696E672E2E2E004275656E6F732025BC
:100750006900526567726573616E646F2E2E0000CA
:10076000526567726573616E646F2E2E0000313EB4
:100770003734303720323E3734333000343E37346C
:10078000313020333E4E6578740037344C53303767
:100790002054657374696E672E2E2E00323E566F9C
:1007A0006C76657200004255464645522D31204216
:1007B00075656E6F210037344C53303720546573A4
:1007C00074696E672E2E2E004255464645522D32D4
:1007D000204275656E6F210037344C5330372054FA
:1007E000657374696E672E2E2E004255464645523B
:1007F0002D33204275656E6F210037344C533037EE
:100800002054657374696E672E2E2E00425546463D
:1008100045522D34204275656E6F210037344C539C
:1008200030372054657374696E672E2E2E00425542
:10083000464645522D35204275656E6F210037348E
:100840004C5330372054657374696E672E2E2E001A
:100850004255464645522D36204275656E6F210041
:1008600037344C5330372054657374696E672E2EBD
:100870002E004275656E6F732025690052656772A0
:100880006573616E646F2E2E000037344C53313027
:100890002054657374696E672E2E2E00323E566F9B
:1008A0006C76657200004E414E442D3120427565D4
:1008B0006E6F210037344C533130205465737469A6
:1008C0006E672E2E2E004E414E442D32204275650D
:1008D0006E6F210037344C53313020546573746986
:1008E0006E672E2E2E004E414E442D3320427565EC
:1008F0006E6F210037344C53313020546573746966
:100900006E672E2E2E004275656E6F73202569006E
:10091000526567726573616E646F2E2E0000373406
:100920004C5333302054657374696E672E2E2E003D
:10093000323E566F6C766572000037344C5333305C
:10094000204275656E6F2100526567726573616E36
:10095000646F2E2E2E00526567726573616E646F30
:100960002E2E2E00313E3734323020323E37343294
:100970003100343E3734313120333E5B4D656E7586
:100980005D0037344C5331312054657374696E67A0
:100990002E2E2E00323E566F6C7665720000414E50
:1009A000442D31204275656E6F21000037344C5361
:1009B00031312054657374696E672E2E2E00414EBE
:1009C000442D32204275656E6F21000037344C5340
:1009D00031312054657374696E672E2E2E00414E9E
:1009E000442D33204275656E6F21000037344C531F
:1009F00031312054657374696E672E2E2E00427556
:100A0000656E6F7320256900526567726573616E4C
:100A1000646F2E2E000037344C53323020546573EF
:100A200074696E672E2E2E00323E566F6C7665729C
:100A300000004E414E442D31204275656E6F2100FD
:100A400037344C5332302054657374696E672E2EE0
:100A50002E004E414E442D32204275656E6F2100AE
:100A600037344C5332302054657374696E672E2EC0
:100A70002E004275656E6F7320256900526567729E
:100A80006573616E646F2E2E000037344C53323123
:100A90002054657374696E672E2E2E00323E566F99
:100AA0006C7665720000414E442D31204275656EB2
:100AB0006F21000037344C53323120546573746910
:100AC0006E672E2E2E00414E442D32204275656EEB
:100AD0006F2100002037344C533231205465737439
:100AE000696E672E2E2E00004275656E6F7320258D
:100AF0006900526567726573616E646F2E2E000027
:100B00002041443632302054657374696E672E2E4E
:100B10002E0020563A25302E32662E20323E526567
:100B20007400526567726573616E646F2E2E0000EB
:100B3000313E35353520323E4C4D32323400343E74
:100B400037343120333E4E6578740000353535201A
:100B500054657374696E672E2E2E0000323E566FF8
:100B60006C7665720000526567726573616E646FC2
:100B70002E2E00005469656D706F3A20256C75004B
:100B80004D616C6F20256900323E566F6C76657240
:100B90000000526567726573616E646F2E2E0000EF
:100BA0004275656E6F2025690000323E566F6C7687
:100BB00065720000526567726573616E646F2E2EF8
:100BC00000004C4D3232342054657374696E672EC8
:100BD0002E2E0000323E566F6C7665720000416D1D
:100BE000704F702D31204275656E6F2100004C4DA5
:100BF0003232342054657374696E672E2E2E0000D5
:100C0000416D704F702D32204275656E6F2100006E
:100C10004C4D3232342054657374696E672E2E2E1B
:100C20000000416D704F702D33204275656E6F214D
:100C300000004C4D3232342054657374696E672E57
:100C40002E2E0000416D704F702D34204275656E60
:100C50006F2100004C4D3232342054657374696E3C
:100C6000672E2E2E00004275656E6F732025690079
:100C7000526567726573616E646F2E2E0000526557
:100C800067726573616E646F2E2E2E0037343120CB
:100C900054657374696E672E2E2E0000323E566FB7
:100CA0006C7665720000416D704F70204275656E04
:100CB0006F210000526567726573616E646F2E2E3E
:100CC0002E00526567726573616E646F2E2E2E0062
:100CD000313E4C4D33353820323E4C4D33343800A4
:100CE000343E4C4D33323420333E4E657874000030
:100CF0004C4D3335382054657374696E672E2E2E33
:100D00000000323E566F6C7665720000416D704F88
:100D1000702D31204275656E6F2100004C4D3335CA
:100D2000382054657374696E672E2E2E0000416D55
:100D3000704F702D32204275656E6F2100004C4D52
:100D40003335382054657374696E672E2E2E00007B
:100D50004275656E6F732025690052656772657311
:100D6000616E646F2E2E0000526567726573616E4E
:100D7000646F2E2E2E004C4D33343820546573741E
:100D8000696E672E2E2E0000323E566F6C766572AD
:100D90000000416D704F702D31204275656E6F21DE
:100DA00000004C4D3334382054657374696E672EDF
:100DB0002E2E0000416D704F702D32204275656EF1
:100DC0006F2100004C4D3334382054657374696EC4
:100DD000672E2E2E0000416D704F702D332042750E
:100DE000656E6F2100004C4D3334382054657374A8
:100DF000696E672E2E2E0000416D704F702D3420CD
:100E00004275656E6F210000204C4D3334382054FC
:100E1000657374696E672E2E2E004275656E6F7352
:100E200020256900526567726573616E646F2E2EAE
:100E30000000526567726573616E646F2E2E2E001E
:100E40004C4D3332342054657374696E672E2E2EE8
:100E50000000323E566F6C7665720000416D704F37
:100E6000702D31204275656E6F2100004C4D33327C
:100E7000342054657374696E672E2E2E0000416D08
:100E8000704F702D32204275656E6F2100004C4D01
:100E90003332342054657374696E672E2E2E000031
:100EA000416D704F702D33204275656E6F210000CB
:100EB0004C4D3332342054657374696E672E2E2E78
:100EC0000000416D704F702D34204275656E6F21AA
:100ED00000004C4D3332342054657374696E672EB4
:100EE0002E2E00004275656E6F73202569005265D5
:100EF00067726573616E646F2E2E2E005265677285
:100F00006573616E646F2E2E2E00313E4E504E2062
:100F1000323E504E5000333E4E65787400004E50C5
:100F20004E2054657374696E672E2E2E0000323E7B
:100F3000566F6C76657200004E504E204255454EFD
:100F40004F00526567726573616E646F2E2E2E00BE
:100F5000526567726573616E646F2E2E2E00504E5F
:100F6000502054657374696E672E2E2E0000323E39
:100F7000566F6C7665720000504E50204255454EBB
:100F80004F00526567726573616E646F2E2E2E007E
:100F9000526567726573616E646F2E2E2E00313E4E
:100FA0004D4F5346204E0000323E4D4F5346205089
:100FB00020333E4E657874004D4F534645542054BF
:100FC000657374696E672E2E2E00323E566F6C76F6
:100FD000657200004D4F53464554204255454E4FD3
:100FE0000000526567726573616E646F2E2E2E006D
:100FF000526567726573616E646F2E2E2E004D4FC1
:10100000534645542054657374696E672E2E2E0026
:10101000323E566F6C76657200004D4F5346455414
:10102000204255454E4F0000526567726573616EF0
:10103000646F2E2E2E00526567726573616E646F49
:101040002E2E2E00313E4D4F43333032302F333071
:1010500031302000333E4E65787400004D4F432000
:1010600054657374696E672E2E2E0000323E566FE3
:101070006C76657200004D4F43204255454E4F003F
:10108000526567726573616E646F2E2E2E00526515
:1010900067726573616E646F2E2E2E00EA6A510EC0
:1010A000E96EEF500EE0010E016E006A002EFED7D1
:1010B000012EFBD74A0E006E002EFED700D0EF2E79
:1010C000F2D71200080E016E00008B969496000075
:1010D0005E368B98D8B09488D8A09498948682A6CF
:1010E000FED7012EF1D700008B96949600009488CD
:1010F00000000000948682A6FED7016A000082B834
:1011000001808B9694968B98949812005C50000AFC
:1011100003E0010A21E041D05B38006EF00E0016BA
:1011200000501D105D6E5E6ECDDF00005B38006EFE
:10113000F00E0016005004091D105D6E5E6EC2DFD9
:1011400000D05B38006EF00E00160050FB0B1D1037
:101150005D6E5E6EB7DF21D05B38006EF00E00165C
:10116000005001091D105D6E5E6EACDF00005B3843
:10117000006EF00E00160050010904091D105D6E8E
:101180005E6EA0DF00D05B38006EF00E00160050DF
:1011900001091D105D6E5E6E95DF120094880000DF
:1011A000948600008B98949800008B96949619C0B2
:1011B0005EF088DF58385A6E0F0E5A165AC05BF030
:1011C00059C05CF0A3DF58500F0B5A6E5B6E59C0CC
:1011D0005CF09CDF94980000948682A6FED7000005
:1011E00000D00000948800001200010E586E596A69
:1011F000D5DF020E516E52DF010E1C6E120040C090
:1012000019F042C01AF041C01BF0F29CF29EF2BEEF
:10121000FDD7320E516E42DF9488000094860000A4
:101220008B98949800008B96949619C05EF04ADFD4
:101230005B6A5C6A6BDF0F0E516E30DF010E436E2E
:101240004350030809E3030E5B6E5C6A5FDF050E23
:10125000516E24DF432AF4D7020E5B6E5C6A56DFC0
:10126000050E516E1BDF94980000948682A6FED76F
:10127000000000D0000094880000436A4350030837
:101280000DE3036A43505DEC00F0446E586E596AFA
:1012900085DF050E516E02DF432AF0D7A6DFC00EB0
:1012A000F21254EF0DF08A6A8B6A1200000E936EF0
:1012B0003F0E946E5EEF09F0F6DFF8D71200525041
:1012C0001A5C03E21AC053F002D052C053F05350DC
:1012D000010A07E0030A07E0010A08E0070A09E03B
:1012E0000BD0556A0AD0400E556E07D0140E556EBD
:1012F00004D0540E556E01D0556A51501B5C03E268
:101300001BC054F002D051C054F0010E545C55245F
:10131000566E56508009576E586E596A3FDF12005C
:1013200050500C0A05E0060A05E0020A0FE013D04F
:101330005CDF16D01C2A1C501A5C02E2010E1C6EE7
:10134000010E516E1CC052F0BADF0AD0100E586E5A
:10135000596A24DF05D050C058F0010E596E1EDFC7
:1013600012000900F5520CE0F6CF40F0F7CF41F043
:10137000F5CF50F0D5DF40C0F6FF41C0F7FFF1D701
:101380001200EA6A410EE96EEF500DE0020E016EA6
:10139000006A002EFED7012EFBD7970E006E002E9E
:1013A000FED7EF2EF3D7120080A604D0010E016EF7
:1013B00014D011D080A804D0020E016E0ED00BD034
:1013C00080AA04D0030E016E08D005D082A003D0FD
:1013D000040E016E02D0000E016E12000900F6CF5D
:1013E00045F0F7CF46F0F5CF50F09ADF45C0F6FF55
:1013F00046C0F7FF442EF2D712004750016A465C00
:1014000003E246C000F00CD0006A080E486E463673
:1014100000364750005CD8B0006E0136482EF7D732
:101420001200200E41A8300E426E40C000F040AEC7
:1014300008D0001E002A00C040F02D0E426E418EE2
:101440004180015040C046F0640E476ED6DF00C0B8
:1014500040F0300E0124436E40C046F00A0E476E45
:10146000CCDF300E0024456E300E0124446E42C0A5
:1014700000F0300E435C04E0418241BE418412D052
:1014800042C043F0200E426E300E445C04E04180C6
:1014900041BE418207D0D8A4418004E143C044F05A
:1014A000200E436E41B405D041B206D041B007D002
:1014B00009D042C050F034DF43C050F031DF44C0A7
:1014C00050F02EDF45C050F02BDF1200510E936E0E
:1014D000400E946E8A6A8B6A70EF0AF0E4DEF6D7EB
:1014E00012000C0E936E3F0E946E8A6A8B6A7BEF2D
:1014F0000AF0D9DEF6D7CCEF12F06A0E936E460EE4
:10150000946E8A6A8B6A87EF0AF0CDDEF6D7F4EF25
:1015100014F06A0E936E460E946E950E8A6E820ECD
:101520008B6E95EF0AF0BFDEF4D778EF16F0280E39
:10153000936E040E946E8A6A8B6AA1EF0AF0B3DE92
:10154000F6D7C9EF17F0280E936E040E946ED70EDF
:101550008A6EFB0E8B6EAFEF0AF0A5DEF4D743EF79
:1015600019F0080E936E040E946E8A6A8250180B5E
:101570008B6EBDEF0AF097DEF4D720EF1AF0080E5D
:10158000936E040E946EF70E8A6EFB0E8B6ECBEF8D
:101590000AF089DEF4D7D9EF1AF0200E936E000E10
:1015A000946E100E8A6E020E8B6ED9EF0AF07BDEFF
:1015B000F4D712008E0E006E41C001F040C002F060
:1015C000036A015209E102C001F0026A080E005EDE
:1015D000015202E1006A08D0D89001BE04D0023660
:1015E00001360006F9D7019EBFEF1BF04D50D8B46D
:1015F00071D0006E5150D8B46DD0002604E3810E36
:10160000002668E204D07F0E005E64E363E04EC013
:1016100055F05250551A4E8E528E50505402F4CFFF
:1016200057F04F505302F4CF03F0F3CF56F054026B
:10163000F3505726F4505622000E03225050530206
:10164000F3505726F4505622000E026A032202225B
:101650004E505402F3505626F4500322000E02223C
:101660004E505302F3500326F4500222000E016A3A
:10167000012250505202F3505626F4500322000E1D
:10168000022201224F505202F3500326F45002224C
:10169000000E01224E505202F3500226F450012255
:1016A000002A01BE05D05636033602360136000642
:1016B000000E56AE0AD0032A02220122015005E193
:1016C000025003E1035001E1002A55BE018E55AEE0
:1016D000019E04D0006A016A026A036A12004D503A
:1016E000B6084D6E036A4EC051F04E8ED8904E3201
:1016F0004F32503203320232013200324D2EF6D7D1
:1017000051AE0BD0001E011E021E031E002AD8B4CB
:10171000012AD8B4022AD8B4032AFDEF0BF0D8B2BC
:1017200003D0EA6A580EE96E006A016A026A036A27
:10173000586A596A5A6A5B6A5750561055105410C5
:101740002CE0200E5C6ED89050365136523653360F
:10175000583659365A365B3657505B5C08E156505E
:101760005A5C05E15550595C02E15450585C0FE356
:101770005450585E5550D8A0553C595E5650D8A08C
:10178000563C5A5E5750D8A0573C5B5ED880003616
:101790000136023603365C2ED6D758C0EFFF59C04B
:1017A000ECFF5AC0ECFF5BC0ECFF1200E950456E45
:1017B0004450476E19E043C050F042C04FF041C062
:1017C0004EF040C04DF0546A536A200E526E820EA5
:1017D000516E0CDF03C043F002C042F001C041F083
:1017E00000C040F0472EE7D743C050F042C04FF052
:1017F00041C04EF040C04DF072D703C043F002C06C
:1018000042F001C041F000C040F043AE0DD04506AB
:10181000458A401E411E421E431E402AD8B4412A1A
:10182000D8B4422AD8B4432A3B0E4C6E9A0E4B6E63
:10183000CA0E4A6E496A0A0E476E4450D8B4452A09
:10184000D882EA6A400EE96E43C053F042C052F0BB
:1018500041C051F040C050F04CC057F04BC056F062
:101860004AC055F049C054F05ADF015000520FE110
:101870004428475C0CE045500CE00F0B475C01E04E
:1018800037E245BE35D045BC04D0200E2DD0200E09
:10189000451645AA0CD0459A4450D8A44506005098
:1018A000456E2D0E506E3CDD4550006E456A44502D
:1018B000475C0AE10050456E2E0E506E31DD4550FA
:1018C000006E200E4516000E300E45AA0DD0459A2A
:1018D0004450D8A445060050456E2D0E506E20DDB4
:1018E0004550006E456A300E002600C050F018DDED
:1018F000D8924CC053F04BC052F04AC051F049C08E
:1019000050F0576A566A556A0A0E546E08DF03C0D3
:101910004CF002C04BF001C04AF000C049F0472E25
:101920008FD713EF1CF0E950486E3B0E4F6E9A0EA6
:101930004E6ECA0E4D6E4C6A0A0E4A6ED882EA6A24
:10194000440EE96E47C053F046C052F045C051F016
:1019500044C050F04FC057F04EC056F04DC055F047
:101960004CC054F0DCDE015000520FE14A50010A35
:101970000CE048500BE00F0B4A5C01E00CE248BE63
:101980000AD048BC03D0200E02D0486A300E002690
:1019900000C050F0C5DCD8924FC053F04EC052F09A
:1019A0004DC051F04CC050F0576A566A556A0A0E45
:1019B000546EB5DE03C04FF002C04EF001C04DF0D2
:1019C00000C04CF04A2EBAD7E9EF1CF0000E936E1F
:1019D000020E946E8A6A8B6AF0EF0CF064DCF6D724
:1019E0001200110E936E000E946E040E8A6E120E8B
:1019F0008B6EFDEF0CF057DCF4D73BEF1FF0200EA1
:101A0000936E100E8A6E07EF0DF04DDCF8D71200C2
:101A1000200E936E8A6A0FEF0DF045DCF9D71200A5
:101A2000040E936E000E946E120E8A6E8B6A1BEF7C
:101A30000DF039DCF5D74EEF24F0F86AD09E078E12
:101A4000010E1C6E080E1D6E266A256AA40E246EF9
:101A5000720E236E4E0E276E020E286E100E296E29
:101A60002A6A306A316A336A326AC150C00B0F0980
:101A7000C16E070EB46E1E6A600ED36E9B6AD350A1
:101A8000FF0E926E400E936EFF0E946ED190860EF6
:101A9000D56EC00EF212F19C27C040F028C041F074
:101AA00029C042F0FFEF08F0C150C00B0E09C16E13
:101AB000C050C00B0709C06EC08EC2805CEC09F03C
:101AC0000C0E506E2DDC516A010E526E5FEC09F067
:101AD000FE0EF66E000EF76E44DC516A020E526E78
:101AE0005FEC09F0060EF66E010EF76E3ADCC80EDA
:101AF000416E47DC0C0E506E13DC516A010E526EC3
:101B00005FEC09F0140EF66E010EF76E2ADC516AD6
:101B1000020E526E5FEC09F0220EF66E010EF76EA9
:101B200020DCC80E416E2DDC0C0E506E90EC09F0DE
:101B3000516A010E526E5FEC09F02E0EF66E010E28
:101B4000F76E0FDC516A020E526E5FEC09F03E0E2A
:101B5000F66E010EF76E05DCC80E416E12DC0C0E3F
:101B6000506E90EC09F0516A010E526E5FEC09F074
:101B70004A0EF66E010EF76EB1EC09F0516A020ED4
:101B8000526E5FEC09F0580EF66E010EF76EB1EC76
:101B900009F0C80E416EC1EC09F00C0E506E90ECCD
:101BA00009F0516A010E526E5FEC09F0640EF66E98
:101BB000010EF76EB1EC09F0516A020E526E5FEC45
:101BC00009F0740EF66E010EF76EB1EC09F0C80E56
:101BD000416EC1EC09F00C0E506E000190EC09F062
:101BE000516A010E526E5FEC09F07C0EF66E010E2A
:101BF000F76EB1EC09F0516A020E526E5FEC09F01B
:101C00008A0EF66E010EF76EB1EC09F0C80E416E49
:101C1000C1EC09F0D4EC09F001500208D8A49EEF01
:101C20001BF08A6A0C0E506E000190EC09F0516AAC
:101C3000010E526E5FEC09F09A0EF66E010EF76E11
:101C4000B1EC09F0516A020E526E5FEC09F0A40E7D
:101C5000F66E010EF76EB1EC09F0C80E416EC1ECE4
:101C600009F0D4EC09F0012C3AD15CEC09F00C0E2F
:101C7000936E3F0E946EF30E8A6EC00E8B6E0C0E3A
:101C8000506E90EC09F0516A010E526E5FEC09F053
:101C9000B20EF66E010EF76EB1EC09F0516A020E4B
:101CA000526E5FEC09F0C40EF66E010EF76EB1ECE9
:101CB00009F0040E406EFA0E416EC1EC09F0402EA0
:101CC000FAD782A224D00C0E506E90EC09F0516A23
:101CD000010E526E5FEC09F0CE0EF66E010EF76E3D
:101CE000B1EC09F0516A020E526E5FEC09F0DC0EA5
:101CF000F66E010EF76EB1EC09F0020E406EFA0EB0
:101D0000416EC1EC09F0402EFAD7010E312682A4B3
:101D100024D00C0E506E90EC09F0516A010E526EF8
:101D20005FEC09F0EE0EF66E010EF76EB1EC09F005
:101D3000516A020E526E5FEC09F0FC0EF66E010E57
:101D4000F76EB1EC09F0020E406EFA0E416EC1EC76
:101D500009F0402EFAD7010E312681A424D00C0EB2
:101D6000506E90EC09F0516A010E526E5FEC09F072
:101D70000E0EF66E020EF76EB1EC09F0516A020E0D
:101D8000526E5FEC09F01C0EF66E020EF76EB1ECAF
:101D900009F0020E406EFA0E416EC1EC09F0402EC1
:101DA000FAD7010E312681A624D00C0E506E90EC8D
:101DB00009F0516A010E526E5FEC09F02E0EF66EBC
:101DC000020EF76EB1EC09F0516A020E526E5FEC32
:101DD00009F03C0EF66E020EF76EB1EC09F0020E41
:101DE000406EFA0E416EC1EC09F0402EFAD7010E9A
:101DF00031263150000848E25CEC09F00C0E506EC0
:101E000090EC09F0516A010E526E5FEC09F04E0E33
:101E1000F66E020EF76E070E446EEEEC09F031C05E
:101E200040F0180E416E11EC0AF0516A020E526E2B
:101E30005FEC09F0580EF66E020EF76EB1EC09F089
:101E4000040E406EFA0E416EC1EC09F0402EFAD736
:101E5000316A0C0E506E90EC09F0516A010E526E10
:101E60005FEC09F0660EF66E020EF76EB1EC09F04B
:101E7000516A020E526E5FEC09F0700EF66E020EA1
:101E8000F76EB1EC09F02BD0D4EC09F00150020848
:101E900025E15CEC09F00C0E506E90EC09F0516AF3
:101EA000010E526E5FEC09F07E0EF66E020EF76EBA
:101EB000B1EC09F0516A020E526E5FEC09F08E0E21
:101EC000F66E020EF76EB1EC09F0040E406EFA0EDB
:101ED000416EC1EC09F0402EFAD701D0C6D6D4EC41
:101EE00009F001500308D8A498EF1BF00C0E506EB7
:101EF000000190EC09F0516A010E526E5FEC09F09E
:101F00009C0EF66E020EF76EB1EC09F0516A020EED
:101F1000526E5FEC09F0AA0EF66E020EF76EB1EC8F
:101F200009F0C80E416EC1EC09F0D4EC09F0012CA7
:101F3000FFD06EEC0AF00C0E506E90EC09F0516A76
:101F4000010E526E5FEC09F0B80EF66E020EF76EDF
:101F5000B1EC09F0516A020E526E5FEC09F0CA0E44
:101F6000F66E020EF76EB1EC09F0040E406EFA0E3A
:101F7000416EC1EC09F0402EFAD781A024D00C0E9E
:101F8000506E90EC09F0516A010E526E5FEC09F050
:101F9000D40EF66E020EF76EB1EC09F0516A020E25
:101FA000526E5FEC09F0E20EF66E020EF76EB1ECC7
:101FB00009F0020E406EFA0E416EC1EC09F0402E9F
:101FC000FAD7010E312682AC24D00C0E506E90EC64
:101FD00009F0516A010E526E5FEC09F0F40EF66ED4
:101FE000020EF76EB1EC09F0516A020E526E5FEC10
:101FF00009F0020EF66E030EF76EB1EC09F0020E58
:10200000406EFA0E416EC1EC09F0402EFAD7010E77
:10201000312681AC24D00C0E506E90EC09F0516A40
:10202000010E526E5FEC09F0140EF66E030EF76EA1
:10203000B1EC09F0516A020E526E5FEC09F0220E0B
:10204000F66E030EF76EB1EC09F0020E406EFA0E5A
:10205000416EC1EC09F0402EFAD7010E312681A85D
:1020600024D00C0E506E90EC09F0516A010E526EA5
:102070005FEC09F0340EF66E030EF76EB1EC09F06A
:10208000516A020E526E5FEC09F0420EF66E030EBC
:10209000F76EB1EC09F0020E406EFA0E416EC1EC23
:1020A00009F0402EFAD7010E3126315000082EE2F9
:1020B0000C0E506E90EC09F0516A010E526E5FECFE
:1020C00009F0540EF66E030EF76E070E446EEEEC3A
:1020D00009F031C040F0180E416E11EC0AF0516A5F
:1020E000020E526E5FEC09F05E0EF66E030EF76E96
:1020F000B1EC09F05CEC09F0040E406EFA0E416E92
:10210000C1EC09F0402EFAD7316AF0D6D4EC09F0D0
:10211000015002080CE15CEC09F0316A040E406EDB
:10212000FA0E416EC1EC09F0402EFAD7DFD625D762
:10213000D4EC09F001500208D8A4FED00C0E936E26
:10214000360E946E510E8A6E400E8B6E8B940C0E72
:10215000506E90EC09F0516A010E526E5FEC09F07E
:102160006C0EF66E030EF76EB1EC09F0516A020EBA
:10217000526E5FEC09F07E0EF66E030EF76EB1EC58
:1021800009F0040E406EFA0E416EC1EC09F0402ECB
:10219000FAD782A224D00C0E506E90EC09F0516A4E
:1021A000010E526E5FEC09F0880EF66E030EF76EAC
:1021B000B1EC09F0516A020E526E5FEC09F0960E16
:1021C000F66E030EF76EB1EC09F0020E406EFA0ED9
:1021D000416EC1EC09F0402EFAD7010E312682A4DF
:1021E00024D00C0E506E90EC09F0516A010E526E24
:1021F0005FEC09F0A80EF66E030EF76EB1EC09F075
:10220000516A020E526E5FEC09F0B60EF66E030EC6
:10221000F76EB1EC09F0020E406EFA0E416EC1ECA1
:1022200009F0402EFAD7010E312681A624D00C0EDB
:10223000506E90EC09F0516A010E526E5FEC09F09D
:10224000C80EF66E030EF76EB1EC09F0516A020E7D
:10225000526E5FEC09F0D60EF66E030EF76EB1EC1F
:1022600009F0020E406EFA0E416EC1EC09F0402EEC
:10227000FAD7010E312681A424D00C0E506E90ECBA
:1022800009F0516A010E526E5FEC09F0E80EF66E2D
:10229000030EF76EB1EC09F0516A020E526E5FEC5C
:1022A00009F0F60EF66E030EF76EB1EC09F0020EB1
:1022B000406EFA0E416EC1EC09F0402EFAD7010EC5
:1022C0003126315000082EE25CEC09F00C0E506E05
:1022D00090EC09F0516A010E526E5FEC09F0080EA5
:1022E000F66E040EF76E070E446EEEEC09F031C088
:1022F00040F0180E416E11EC0AF0516A020E526E57
:102300005FEC09F0120EF66E040EF76EB1EC09F0F8
:10231000040E406EFA0E416EC1EC09F0402EFAD761
:10232000316AE4D5D4EC09F00150020804E15CEC18
:1023300009F0316ADBD52DD7D4EC09F0015004083F
:10234000D8A4FED00C0E936E360E946E510E8A6E8B
:10235000400E8B6E8B940C0E506E90EC09F0516A0F
:10236000010E526E5FEC09F0200EF66E040EF76E51
:10237000B1EC09F0516A020E526E5FEC09F0320EB8
:10238000F66E040EF76EB1EC09F0040E406EFA0E14
:10239000416EC1EC09F0402EFAD782A224D00C0E77
:1023A000506E90EC09F0516A010E526E5FEC09F02C
:1023B0003C0EF66E040EF76EB1EC09F0516A020E97
:1023C000526E5FEC09F0480EF66E040EF76EB1EC3B
:1023D00009F0020E406EFA0E416EC1EC09F0402E7B
:1023E000FAD7010E312682A424D00C0E506E90EC48
:1023F00009F0516A010E526E5FEC09F05A0EF66E4A
:10240000040EF76EB1EC09F0516A020E526E5FECE9
:1024100009F0660EF66E040EF76EB1EC09F0020ECE
:10242000406EFA0E416EC1EC09F0402EFAD7010E53
:10243000312681A624D00C0E506E90EC09F0516A22
:10244000010E526E5FEC09F0780EF66E040EF76E18
:10245000B1EC09F0516A020E526E5FEC09F0840E85
:10246000F66E040EF76EB1EC09F0020E406EFA0E35
:10247000416EC1EC09F0402EFAD7010E312681A43D
:1024800024D00C0E506E90EC09F0516A010E526E81
:102490005FEC09F0960EF66E040EF76EB1EC09F0E3
:1024A000516A020E526E5FEC09F0A20EF66E040E37
:1024B000F76EB1EC09F0020E406EFA0E416EC1ECFF
:1024C00009F0402EFAD7010E3126315000082EE2D5
:1024D0005CEC09F00C0E506E90EC09F0516A010EA4
:1024E000526E5FEC09F0B40EF66E040EF76E070E36
:1024F000446EEEEC09F031C040F0180E416E11EC64
:102500000AF0516A020E526E5FEC09F0BE0EF66ED2
:10251000040EF76EB1EC09F0040E406EFA0E416E37
:10252000C1EC09F0402EFAD7316AE0D4D4EC09F0BE
:102530000150020804E15CEC09F0316AD7D42DD7D0
:10254000D4EC09F001500308D8A496EF1BF00C0E50
:10255000506E000190EC09F0516A010E526E5FEC72
:1025600009F0CC0EF66E040EF76EB1EC09F0516A6C
:10257000020E526E5FEC09F0DA0EF66E040EF76E84
:10258000B1EC09F0C80E416EC1EC09F0D4EC09F0D1
:10259000012C0ED179EF0AF00C0E506E90EC09F080
:1025A000516A010E526E5FEC09F0E80EF66E040EF1
:1025B000F76EB1EC09F0516A020E526E5FEC09F051
:1025C000FA0EF66E040EF76EB1EC09F0040E406ED2
:1025D000FA0E416EC1EC09F0402EFAD782A224D047
:1025E0000C0E506E90EC09F0516A010E526E5FECC9
:1025F00009F0040EF66E050EF76EB1EC09F0516AA3
:10260000020E526E5FEC09F0120EF66E050EF76EBA
:10261000B1EC09F0020E406EFA0E416EC1EC09F009
:10262000402EFAD7010E312682A424D00C0E506E13
:1026300090EC09F0516A010E526E5FEC09F0240E25
:10264000F66E050EF76EB1EC09F0516A020E526E8D
:102650005FEC09F0320EF66E050EF76EB1EC09F084
:10266000020E406EFA0E416EC1EC09F0402EFAD710
:10267000010E312681A424D00C0E506E90EC09F08E
:10268000516A010E526E5FEC09F0440EF66E050EB3
:10269000F76EB1EC09F0516A020E526E5FEC09F070
:1026A000520EF66E050EF76EB1EC09F0020E406E9A
:1026B000FA0E416EC1EC09F0402EFAD7010E312618
:1026C00081A624D00C0E506E90EC09F0516A010ED8
:1026D000526E5FEC09F0640EF66E050EF76EB1EC0B
:1026E00009F0516A020E526E5FEC09F0720EF66E3E
:1026F000050EF76EB1EC09F0020E406EFA0E416E57
:10270000C1EC09F0402EFAD7010E312631500008F5
:102710002EE25CEC09F00C0E506E90EC09F0516A60
:10272000010E526E5FEC09F0840EF66E050EF76E28
:10273000070E446EEEEC09F031C040F0180E416E09
:1027400011EC0AF0516A020E526E5FEC09F08E0E27
:10275000F66E050EF76EB1EC09F0040E406EFA0E3F
:10276000416EC1EC09F0402EFAD7316AF0D6D4ECB4
:1027700009F0015002081BE15CEC09F00C0E506EF0
:1027800090EC09F0516A020E526E5FEC09F09C0E5B
:10279000F66E050EF76EB1EC09F0040E406EFA0EFF
:1027A000416EC1EC09F0402EFAD7316AD0D616D767
:1027B000D4EC09F001500208D8A40ED16EEC0AF056
:1027C0000C0E506E90EC09F0516A010E526E5FECE7
:1027D00009F0AA0EF66E050EF76EB1EC09F0516A1B
:1027E000020E526E5FEC09F0BC0EF66E050EF76E2F
:1027F000B1EC09F0040E406EFA0E416EC1EC09F026
:10280000402EFAD781A024D00C0E506E90EC09F027
:10281000516A010E526E5FEC09F0C60EF66E050E9F
:10282000F76EB1EC09F0516A020E526E5FEC09F0DE
:10283000D40EF66E050EF76EB1EC09F0020E406E86
:10284000FA0E416EC1EC09F0402EFAD7010E312686
:1028500082AC24D00C0E506E90EC09F0516A010E3F
:10286000526E5FEC09F0E60EF66E050EF76EB1ECF7
:1028700009F0516A020E526E5FEC09F0F40EF66E2A
:10288000050EF76EB1EC09F0020E406EFA0E416EC5
:10289000C1EC09F0402EFAD7010E312681AC24D0CC
:1028A0000C0E506E90EC09F0516A010E526E5FEC06
:1028B00009F0060EF66E060EF76EB1EC09F0516ADD
:1028C000020E526E5FEC09F0140EF66E060EF76EF5
:1028D000B1EC09F0020E406EFA0E416EC1EC09F047
:1028E000402EFAD7010E312681A824D00C0E506E4E
:1028F00090EC09F0516A010E526E5FEC09F0260E61
:10290000F66E060EF76EB1EC09F0516A020E526EC9
:102910005FEC09F0340EF66E060EF76EB1EC09F0BE
:10292000020E406EFA0E416EC1EC09F0402EFAD74D
:10293000010E3126315000082EE25CEC09F00C0E3D
:10294000506E90EC09F0516A010E526E5FEC09F086
:10295000460EF66E060EF76E070E446EEEEC09F0AC
:1029600031C040F0180E416E11EC0AF0516A020EAF
:10297000526E5FEC09F0500EF66E060EF76EB1EC7B
:1029800009F0040E406EFA0E416EC1EC09F0402EC3
:10299000FAD7316ADCD5D4EC09F0015002081BE10A
:1029A0005CEC09F00C0E506E90EC09F0516A020ECE
:1029B000526E5FEC09F05E0EF66E060EF76EB1EC2D
:1029C00009F0316A040E406EFA0E416EC1EC09F056
:1029D000402EFAD7BCD516D7D4EC09F00150040824
:1029E000D8A45AD185EF0AF00C0E506E90EC09F085
:1029F000516A010E526E5FEC09F06C0EF66E060E17
:102A0000F76EB1EC09F0516A020E526E5FEC09F0FC
:102A10007E0EF66E060EF76EB1EC09F0020E406EF9
:102A2000FA0E416EC1EC09F0402EFAD781A224D0F3
:102A30000C0E506E90EC09F0516A010E526E5FEC74
:102A400009F0880EF66E060EF76EB1EC09F0516AC9
:102A5000020E526E5FEC09F0960EF66E060EF76EE1
:102A6000B1EC09F0020E406EFA0E416EC1EC09F0B5
:102A7000402EFAD7010E312682AC24D00C0E506EB7
:102A800090EC09F0516A010E526E5FEC09F0A80E4D
:102A9000F66E060EF76EB1EC09F0516A020E526E38
:102AA0005FEC09F0B60EF66E060EF76EB1EC09F0AB
:102AB000020E406EFA0E416EC1EC09F0402EFAD7BC
:102AC000010E312682A424D00C0E506E90EC09F039
:102AD000516A010E526E5FEC09F0C80EF66E060EDA
:102AE000F76EB1EC09F0516A020E526E5FEC09F01C
:102AF000D60EF66E060EF76EB1EC09F0020E406EC1
:102B0000FA0E416EC1EC09F0402EFAD7010E3126C3
:102B100081A624D00C0E506E90EC09F0516A010E83
:102B2000526E5FEC09F0E80EF66E060EF76EB1EC31
:102B300009F0516A020E526E5FEC09F0F60EF66E65
:102B4000060EF76EB1EC09F0020E406EFA0E416E01
:102B5000C1EC09F0402EFAD7010E312681AC24D009
:102B60000C0E506E90EC09F0516A010E526E5FEC43
:102B700009F0080EF66E070EF76EB1EC09F0516A17
:102B8000020E526E5FEC09F0160EF66E070EF76E2F
:102B9000B1EC09F0020E406EFA0E416EC1EC09F084
:102BA000402EFAD7010E312681AA24D00C0E506E89
:102BB00090EC09F0516A010E526E5FEC09F0280E9C
:102BC000F66E070EF76EB1EC09F0516A020E526E06
:102BD0005FEC09F0360EF66E070EF76EB1EC09F0F9
:102BE000020E406EFA0E416EC1EC09F0402EFAD78B
:102BF000010E3126315000082EE25CEC09F00C0E7B
:102C0000506E90EC09F0516A010E526E5FEC09F0C3
:102C1000480EF66E070EF76E070E446EEEEC09F0E6
:102C200031C040F0180E416E11EC0AF0516A020EEC
:102C3000526E5FEC09F0520EF66E070EF76EB1ECB5
:102C400009F0040E406EFA0E416EC1EC09F0402E00
:102C5000FAD7316A7CD4D4EC09F0015002081BE1A8
:102C60000C0E506E90EC09F0516A020E526E5FEC41
:102C700009F0600EF66E070EF76EB1EC09F05CEC31
:102C800009F0316A040E406EFA0E416EC1EC09F093
:102C9000402EFAD75CD4CAD6D4EC09F00150030810
:102CA000D8A494EF1BF00C0E506E000190EC09F0CC
:102CB000516A010E526E5FEC09F06E0EF66E070E51
:102CC000F76EB1EC09F0516A020E526E5FEC09F03A
:102CD0007C0EF66E070EF76EB1EC09F0C80E416E71
:102CE000C1EC09F0D4EC09F0012C4BD193EF0AF0C0
:102CF0000C0E506E90EC09F0516A010E526E5FECB2
:102D000009F08A0EF66E070EF76EB1EC09F0516A03
:102D1000020E526E5FEC09F09C0EF66E070EF76E17
:102D2000B1EC09F0040E406EFA0E416EC1EC09F0F0
:102D3000402EFAD781A224D00C0E506E90EC09F0F0
:102D4000516A010E526E5FEC09F0A60EF66E070E88
:102D5000F76EB1EC09F0516A020E526E5FEC09F0A9
:102D6000B60EF66E070EF76EB1EC09F0020E406E6D
:102D7000FA0E416EC1EC09F0402EFAD7010E312651
:102D800082AC24D00C0E506E90EC09F0516A010E0A
:102D9000526E5FEC09F0C80EF66E070EF76EB1ECDE
:102DA00009F0516A020E526E5FEC09F0D80EF66E11
:102DB000070EF76EB1EC09F0020E406EFA0E416E8E
:102DC000C1EC09F0402EFAD7010E312682A424D09E
:102DD0000C0E506E90EC09F0516A010E526E5FECD1
:102DE00009F0EA0EF66E070EF76EB1EC09F0516AC3
:102DF000020E526E5FEC09F0FA0EF66E070EF76ED9
:102E0000B1EC09F0020E406EFA0E416EC1EC09F011
:102E1000402EFAD7010E312681A624D00C0E506E1A
:102E200090EC09F0516A010E526E5FEC09F00C0E45
:102E3000F66E080EF76EB1EC09F0516A020E526E92
:102E40005FEC09F01C0EF66E080EF76EB1EC09F09F
:102E5000020E406EFA0E416EC1EC09F0402EFAD718
:102E6000010E312681AC24D00C0E506E90EC09F08E
:102E7000516A010E526E5FEC09F02E0EF66E080ECE
:102E8000F76EB1EC09F0516A020E526E5FEC09F078
:102E90003E0EF66E080EF76EB1EC09F0020E406EB3
:102EA000FA0E416EC1EC09F0402EFAD7010E312620
:102EB00081AA24D00C0E506E90EC09F0516A010EDC
:102EC000526E5FEC09F0500EF66E080EF76EB1EC24
:102ED00009F0516A020E526E5FEC09F0600EF66E58
:102EE000080EF76EB1EC09F0020E406EFA0E416E5C
:102EF000C1EC09F0402EFAD7010E312631500008FE
:102F00002EE25CEC09F00C0E506E90EC09F0516A68
:102F1000010E526E5FEC09F0720EF66E080EF76E3F
:102F2000070E446EEEEC09F031C040F0180E416E11
:102F300011EC0AF0516A020E526E5FEC09F07C0E41
:102F4000F66E080EF76EB1EC09F0040E406EFA0E44
:102F5000416EC1EC09F0402EFAD7316AA4D6D4EC08
:102F600009F0015002080CE15CEC09F0316A040E32
:102F7000406EFA0E416EC1EC09F0402EFAD793D69E
:102F8000D9D6D4EC09F001500408D8A4D9D09FEFC9
:102F90000AF00C0E506E90EC09F0516A010E526E60
:102FA0005FEC09F08A0EF66E080EF76EB1EC09F0D0
:102FB000516A020E526E5FEC09F09C0EF66E080E1E
:102FC000F76EB1EC09F0040E406EFA0E416EC1ECE2
:102FD00009F0402EFAD781AA24D00C0E506E90EC46
:102FE00009F0516A010E526E5FEC09F0A60EF66E02
:102FF000080EF76EB1EC09F0516A020E526E5FECEA
:1030000009F0B40EF66E080EF76EB1EC09F0020E80
:10301000406EFA0E416EC1EC09F0402EFAD7010E57
:10302000312681A624D00C0E506E90EC09F0516A26
:10303000010E526E5FEC09F0C60EF66E080EF76ECA
:10304000B1EC09F0516A020E526E5FEC09F0D40E39
:10305000F66E080EF76EB1EC09F0020E406EFA0E35
:10306000416EC1EC09F0402EFAD7010E312682A440
:1030700024D00C0E506E90EC09F0516A010E526E85
:103080005FEC09F0E60EF66E080EF76EB1EC09F093
:10309000516A020E526E5FEC09F0F40EF66E080EE5
:1030A000F76EB1EC09F0020E406EFA0E416EC1EC03
:1030B00009F0402EFAD7010E3126315000082EE2D9
:1030C0005CEC09F00C0E506E90EC09F0516A010EA8
:1030D000526E5FEC09F0060EF66E090EF76E070EE3
:1030E000446EEEEC09F031C040F0180E416E11EC68
:1030F0000AF0516A020E526E5FEC09F0100EF66E85
:10310000090EF76EB1EC09F0040E406EFA0E416E36
:10311000C1EC09F0402EFAD7316AC5D5D4EC09F0DC
:10312000015002080CE15CEC09F0316A040E406EBB
:10313000FA0E416EC1EC09F0402EFAD7B4D54BD748
:10314000D4EC09F00150020871E15CEC09F0080EC2
:10315000936E000E946E8A6A8B6A0C0E506E90EC21
:1031600009F0516A010E526E5FEC09F01E0EF66E08
:10317000090EF76EB1EC09F0516A020E526E5FEC67
:1031800009F0300EF66E090EF76EB1EC09F0040E80
:10319000406EFA0E416EC1EC09F0402EFAD781A6BE
:1031A00025D00C0E506E90EC09F0516A010E526E53
:1031B0005FEC09F03A0EF66E090EF76EB1EC09F00D
:1031C000516A020E526E5FEC09F0480EF66E090E5F
:1031D000F76EB1EC09F0040E406EFA0E416EC1ECD0
:1031E00009F0402EFAD75CEC09F05DD5D4EC09F07B
:1031F000015002081AE10C0E506E90EC09F0516A71
:10320000020E526E5FEC09F0560EF66E090EF76E66
:10321000B1EC09F0040E406EFA0E416EC1EC09F0FB
:10322000402EFAD75CEC09F03ED5B9D7D4EC09F0C2
:1032300001500308D8A476D20C0E506E000190EC19
:1032400009F0516A010E526E5FEC09F0640EF66EE1
:10325000090EF76EB1EC09F0516A020E526E5FEC86
:1032600009F0720EF66E090EF76EB1EC09F0C80E99
:10327000416EC1EC09F0D4EC09F001500408D8A467
:10328000D9D0ADEF0AF00C0E506E90EC09F0516AF7
:10329000010E526E5FEC09F0820EF66E090EF76EAB
:1032A000B1EC09F0516A020E526E5FEC09F0940E17
:1032B000F66E090EF76EB1EC09F0040E406EFA0ED0
:1032C000416EC1EC09F0402EFAD781AA24D00C0E31
:1032D000506E90EC09F0516A010E526E5FEC09F0ED
:1032E0009E0EF66E090EF76EB1EC09F0516A020EF1
:1032F000526E5FEC09F0AC0EF66E090EF76EB1EC93
:1033000009F0020E406EFA0E416EC1EC09F0402E3B
:10331000FAD7010E312681A624D00C0E506E90EC07
:1033200009F0516A010E526E5FEC09F0BE0EF66EA6
:10333000090EF76EB1EC09F0516A020E526E5FECA5
:1033400009F0CC0EF66E090EF76EB1EC09F0020E24
:10335000406EFA0E416EC1EC09F0402EFAD7010E14
:10336000312682A424D00C0E506E90EC09F0516AE4
:10337000010E526E5FEC09F0DE0EF66E090EF76E6E
:10338000B1EC09F0516A020E526E5FEC09F0EC0EDE
:10339000F66E090EF76EB1EC09F0020E406EFA0EF1
:1033A000416EC1EC09F0402EFAD7010E31263150A2
:1033B00000082EE25CEC09F00C0E506E90EC09F067
:1033C000516A010E526E5FEC09F0FE0EF66E090EA8
:1033D000F76E070E446EEEEC09F031C040F0180EA7
:1033E000416E11EC0AF0516A020E526E5FEC09F068
:1033F000080EF66E0A0EF76EB1EC09F0040E406E80
:10340000FA0E416EC1EC09F0402EFAD7316A14D79A
:10341000D4EC09F0015002080CE15CEC09F0316ACF
:10342000040E406EFA0E416EC1EC09F0402EFAD740
:1034300003D74BD7D4EC09F0012CB3D0BBEF0AF083
:103440000C0E506E90EC09F0516A010E526E5FEC5A
:1034500009F0160EF66E0A0EF76EB1EC09F0516A1D
:10346000020E526E5FEC09F0280EF66E0A0EF76E31
:10347000B1EC09F0040E406EFA0E416EC1EC09F099
:10348000402EFAD781A624D00C0E506E90EC09F095
:10349000516A010E526E5FEC09F0320EF66E0A0EA2
:1034A000F76EB1EC09F0516A020E526E5FEC09F052
:1034B000400EF66E0A0EF76EB1EC09F0020E406E89
:1034C000FA0E416EC1EC09F0402EFAD7010E3126FA
:1034D00082A424D00C0E506E90EC09F0516A010EBB
:1034E000526E5FEC09F0520EF66E0A0EF76EB1ECFA
:1034F00009F0516A020E526E5FEC09F0600EF66E32
:103500000A0EF76EB1EC09F0020E406EFA0E416E33
:10351000C1EC09F0402EFAD7010E312631500008D7
:103520002EE25CEC09F00C0E506E90EC09F0516A42
:10353000010E526E5FEC09F0720EF66E0A0EF76E17
:10354000070E446EEEEC09F031C040F0180E416EEB
:1035500011EC0AF0516A020E526E5FEC09F07C0E1B
:10356000F66E0A0EF76EB1EC09F0040E406EFA0E1C
:10357000416EC1EC09F0402EFAD7316A5DD6D4EC29
:1035800009F0015002080CE15CEC09F0316A040E0C
:10359000406EFA0E416EC1EC09F0402EFAD74CD6BF
:1035A00071D7D4EC09F001500208D8A4B3D0C9EF08
:1035B0000AF00C0E506E90EC09F0516A010E526E3A
:1035C0005FEC09F08A0EF66E0A0EF76EB1EC09F0A8
:1035D000516A020E526E5FEC09F09C0EF66E0A0EF6
:1035E000F76EB1EC09F0040E406EFA0E416EC1ECBC
:1035F00009F0402EFAD781A624D00C0E506E90EC24
:1036000009F0516A010E526E5FEC09F0A60EF66EDB
:103610000A0EF76EB1EC09F0516A020E526E5FECC1
:1036200009F0B40EF66E0A0EF76EB1EC09F0020E58
:10363000406EFA0E416EC1EC09F0402EFAD7010E31
:10364000312682A424D00C0E506E90EC09F0516A01
:10365000010E526E5FEC09F0C60EF66E0A0EF76EA2
:10366000B1EC09F0516A020E526E5FEC09F0D40E13
:10367000F66E0A0EF76EB1EC09F0020E406EFA0E0D
:10368000416EC1EC09F0402EFAD7010E31263150BF
:1036900000082EE25CEC09F00C0E506E90EC09F084
:1036A000516A010E526E5FEC09F0E80EF66E0A0EDA
:1036B000F76E070E446EEEEC09F031C040F0180EC4
:1036C000416E11EC0AF0516A020E526E5FEC09F085
:1036D000F20EF66E0A0EF76EB1EC09F0040E406EB3
:1036E000FA0E416EC1EC09F0402EFAD7316AA4D52A
:1036F000D4EC09F0015002080CE15CEC09F0316AED
:10370000040E406EFA0E416EC1EC09F0402EFAD75D
:1037100093D571D7D4EC09F00150030802E1EBEF27
:103720000DF0A9D572EF16F0C6EF12F095EF0FF07D
:1037300031EF0EF0000111EF0EF00001D4EC09F0B2
:10374000012CA2D05CEC09F0D7EC0AF0000E016E5F
:10375000C250C30B0110C26E0D0E006E002EFED7BC
:10376000C282C2B2FED7C4CF02F0C3CF01F0C4CF31
:1037700003F0C3CF40F0C4CF41F0DAEF0AF003C04A
:1037800037F002C036F001C035F000C034F037C069
:1037900050F036C04FF035C04EF034C04DF0BD0E85
:1037A000546E1A0E536E200E526E770E516EF6EC5A
:1037B0000AF003C03BF002C03AF001C039F000C08B
:1037C00038F03BC03FF03AC03EF039C03DF038C061
:1037D0003CF00C0E506E90EC09F0516A010E526EE6
:1037E0005FEC09F0000EF66E0B0EF76EB1EC09F00F
:1037F000516A020E526E5FEC09F0120EF66E0B0E5D
:10380000F76E030E446EEEEC09F0C90EE96E3FC090
:1038100043F03EC042F03DC041F03CC040F0020EDB
:10382000446ED6EF0BF01A0EF66E0B0EF76E070E07
:10383000446EEEEC09F0020E406EFA0E416EC1ECE1
:1038400009F0402EFAD7D4EC09F0015002081BE130
:103850005CEC09F00C0E506E90EC09F0516A020E0F
:10386000526E5FEC09F0220EF66E0B0EF76EB1ECA5
:1038700009F0020E406EFA0E416EC1EC09F0402EC6
:10388000FAD7EBEF0DF06CD7D4EC09F00150030838
:10389000D8A4C8EF24F00C0E506E000190EC09F093
:1038A000516A010E526E5FEC09F0300EF66E0B0E8F
:1038B000F76EB1EC09F0516A020E526E5FEC09F03E
:1038C0003E0EF66E0B0EF76EB1EC09F0C80E416EAF
:1038D000C1EC09F0D4EC09F0012C1AD15CEC09F030
:1038E000040E936E010E8A6E2B80F29424C0D7FFD3
:1038F00023C0D6FF0000D6502C6ED7CF2DF02E6AF5
:103900002F6AF28AF0880C0E506E90EC09F0516A22
:10391000010E526E5FEC09F04C0EF66E0B0EF76E58
:10392000B1EC09F0516A020E526E5FEC09F05C0EC8
:10393000F66E0B0EF76EB1EC09F02BA04FD0D4EC65
:1039400009F0015002081BE15CEC09F00C0E506E0E
:1039500090EC09F0516A020E526E5FEC09F0660EAF
:10396000F66E0B0EF76EB1EC09F0040E406EFA0E17
:10397000416EC1EC09F0402EFAD72A6A8CD7516A01
:10398000010E526E5FEC09F0D650D7CF03F0FF0A5C
:10399000010F406E000ED754416E010ED8A0E8060C
:1039A000426E000ED8A0E806436E740EF66E0B0E43
:1039B000F76E080E446EEEEC09F0410EE96E43C05E
:1039C00047F042C046F041C045F040C044F093EF9C
:1039D0000CF0640E416EC1EC09F0AFD72BB098D05B
:1039E0002BB24AD00C0E506E90EC09F0516A010EC9
:1039F000526E5FEC09F0800EF66E0B0EF76E050E40
:103A0000446EEEEC09F02AC040F0180E416E11EC45
:103A10000AF0516A020E526E5FEC09F08A6A880E53
:103A2000F66E0B0EF76EB1EC09F0D4EC09F0015014
:103A3000020821E1F29424C0D7FF23C0D6FF000082
:103A40005CEC09F00C0E506E90EC09F0516A020E1D
:103A5000526E5FEC09F0920EF66E0B0EF76EB1EC43
:103A600009F0040E406EFA0E416EC1EC09F0402ED2
:103A7000FAD72A6A10D7D9D72BA24AD00C0E506E8B
:103A800090EC09F0516A010E526E5FEC09F0A00E45
:103A9000F66E0B0EF76E060E446EEEEC09F02AC0C1
:103AA00040F0180E416E11EC0AF0516A020E526E8F
:103AB0005FEC09F08A6AAA0EF66E0B0EF76EB1EC97
:103AC00009F0D4EC09F00150020821E15CEC09F0A6
:103AD0002A6AF29424C0D7FF23C0D6FF00000C0E40
:103AE000506E90EC09F0516A020E526E5FEC09F0D4
:103AF000B40EF66E0B0EF76EB1EC09F0040E406ECC
:103B0000FA0E416EC1EC09F0402EFAD7C4D6D9D7CF
:103B1000D4EC09F001500208D8A40FD1EEEC0CF05F
:103B20000C0E506E90EC09F0516A010E526E5FEC73
:103B300009F0C20EF66E0B0EF76EB1EC09F0516A89
:103B4000020E526E5FEC09F0D40EF66E0B0EF76E9D
:103B5000B1EC09F0020E406EFA0E416EC1EC09F0B4
:103B6000402EFAD782A224D00C0E506E90EC09F0B1
:103B7000516A010E526E5FEC09F0DE0EF66E0B0E0E
:103B8000F76EB1EC09F0516A020E526E5FEC09F06B
:103B9000EE0EF66E0B0EF76EB1EC09F0020E406EF3
:103BA000FA0E416EC1EC09F0402EFAD7010E302614
:103BB00082A424D00C0E506E90EC09F0516A010ED4
:103BC000526E5FEC09F0000EF66E0C0EF76EB1EC63
:103BD00009F0516A020E526E5FEC09F0100EF66E9B
:103BE0000C0EF76EB1EC09F0020E406EFA0E416E4B
:103BF000C1EC09F0402EFAD7010E302681A624D060
:103C00000C0E506E90EC09F0516A010E526E5FEC92
:103C100009F0220EF66E0C0EF76EB1EC09F0516A47
:103C2000020E526E5FEC09F0320EF66E0C0EF76E5D
:103C3000B1EC09F0020E406EFA0E416EC1EC09F0D3
:103C4000402EFAD7010E302681A824D00C0E506EDB
:103C500090EC09F0516A010E526E5FEC09F0440ECF
:103C6000F66E0C0EF76EB1EC09F0516A020E526E50
:103C70005FEC09F0540EF66E0C0EF76EB1EC09F025
:103C8000020E406EFA0E416EC1EC09F0402EFAD7DA
:103C9000010E3026305000082FE25CEC09F08B6AF0
:103CA0000C0E506E90EC09F0516A010E526E5FECF2
:103CB00009F0660EF66E0C0EF76E070E446EEEEC13
:103CC00009F030C040F0180E416E11EC0AF0516A54
:103CD000020E526E5FEC09F0700EF66E0C0EF76E6F
:103CE000B1EC09F0040E406EFA0E416EC1EC09F021
:103CF000402EFAD7306ACFD5D4EC09F00150020833
:103D00001BE15CEC09F0306A0C0E506E90EC09F08F
:103D1000516A020E526E5FEC09F07E0EF66E0C0ECA
:103D2000F76EB1EC09F0020E406EFA0E416EC1EC76
:103D300009F0402EFAD7AFD515D7D4EC09F00150D1
:103D400004086DE15CEC09F0D7EC0AF00C0E506E43
:103D500090EC09F0516A010E526E5FEC09F08C0E86
:103D6000F66E0C0EF76EB1EC09F0516A020E526E4F
:103D70005FEC09F09C0EF66E0C0EF76EB1EC09F0DC
:103D8000040E406EFA0E416EC1EC09F0402EFAD7D7
:103D900081AA25D05CEC09F00C0E506E90EC09F075
:103DA000516A010E526E5FEC09F0A60EF66E0C0E13
:103DB000F76EB1EC09F0516A020E526E5FEC09F039
:103DC000B40EF66E0C0EF76EB1EC09F0020E406EFA
:103DD000FA0E416EC1EC09F0402EFAD75CD5D4EC56
:103DE00009F0015002081AE15CEC09F00C0E506E6B
:103DF00090EC09F0516A020E526E5FEC09F0C20EAF
:103E0000F66E0C0EF76EB1EC09F0020E406EFA0E73
:103E1000416EC1EC09F0402EFAD73DD5B9D7D4ECAC
:103E200009F001500308D8A4C6EF24F00C0E506E20
:103E3000000190EC09F0516A010E526E5FEC09F03E
:103E4000D00EF66E0C0EF76EB1EC09F0516A020E50
:103E5000526E5FEC09F0E00EF66E0C0EF76EB1ECF0
:103E600009F0C80E416EC1EC09F0D4EC09F0012C48
:103E7000C2D0FBEF0CF00C0E506E90EC09F0516AC2
:103E8000010E526E5FEC09F0F00EF66E0C0EF76E3E
:103E9000B1EC09F0516A020E526E5FEC09F0020EAD
:103EA000F66E0D0EF76EB1EC09F0040E406EFA0ED0
:103EB000416EC1EC09F0402EFAD781A024D00C0E3F
:103EC000506E90EC09F0516A010E526E5FEC09F0F1
:103ED0000C0EF66E0D0EF76EB1EC09F0516A020E83
:103EE000526E5FEC09F01C0EF66E0D0EF76EB1EC23
:103EF00009F0020E406EFA0E416EC1EC09F0402E40
:103F0000FAD7010E302681A824D00C0E506E90EC0A
:103F100009F0516A010E526E5FEC09F02E0EF66E3A
:103F20000D0EF76EB1EC09F0516A020E526E5FECA5
:103F300009F03E0EF66E0D0EF76EB1EC09F0020EB2
:103F4000406EFA0E416EC1EC09F0402EFAD7010E18
:103F50003026305000082EE25CEC09F00C0E506E5A
:103F600090EC09F0516A010E526E5FEC09F0500EB0
:103F7000F66E0D0EF76E070E446EEEEC09F030C0D3
:103F800040F0180E416E11EC0AF0516A020E526EAA
:103F90005FEC09F05A0EF66E0D0EF76EB1EC09F0FB
:103FA000040E406EFA0E416EC1EC09F0402EFAD7B5
:103FB000306A3CD7D4EC09F0015002081BE15CECFC
:103FC00009F0306A0C0E506E90EC09F0516A020E46
:103FD000526E5FEC09F0680EF66E0D0EF76EB1ECE6
:103FE00009F0020E406EFA0E416EC1EC09F0402E4F
:103FF000FAD71CD762D7D4EC09F001500208D8A434
:104000000ED1EEEC0CF00C0E506E90EC09F0516AF3
:10401000010E526E5FEC09F0760EF66E0D0EF76E25
:10402000B1EC09F0516A020E526E5FEC09F0880E95
:10403000F66E0D0EF76EB1EC09F0040E406EFA0E3E
:10404000416EC1EC09F0402EFAD782A224D00C0EAA
:10405000506E90EC09F0516A010E526E5FEC09F05F
:10406000920EF66E0D0EF76EB1EC09F0516A020E6B
:10407000526E5FEC09F0A20EF66E0D0EF76EB1EC0B
:1040800009F0020E406EFA0E416EC1EC09F0402EAE
:10409000FAD7010E302682A424D00C0E506E90EC7C
:1040A00009F0516A010E526E5FEC09F0B40EF66E23
:1040B0000D0EF76EB1EC09F0516A020E526E5FEC14
:1040C00009F0C40EF66E0D0EF76EB1EC09F0020E9B
:1040D000406EFA0E416EC1EC09F0402EFAD7010E87
:1040E000302681A624D00C0E506E90EC09F0516A57
:1040F000010E526E5FEC09F0D60EF66E0D0EF76EE5
:10410000B1EC09F0516A020E526E5FEC09F0E60E56
:10411000F66E0D0EF76EB1EC09F0020E406EFA0E5F
:10412000416EC1EC09F0402EFAD7010E302681A86D
:1041300024D00C0E506E90EC09F0516A010E526EB4
:104140005FEC09F0F80EF66E0D0EF76EB1EC09F0AB
:10415000516A020E526E5FEC09F0080EF66E0E0EFA
:10416000F76EB1EC09F0020E406EFA0E416EC1EC32
:1041700009F0402EFAD7010E3026305000082EE20A
:104180005CEC09F00C0E506E90EC09F0516A010ED7
:10419000526E5FEC09F01A0EF66E0E0EF76E070EF9
:1041A000446EEEEC09F030C040F0180E416E11EC98
:1041B0000AF0516A020E526E5FEC09F0240EF66EA0
:1041C0000E0EF76EB1EC09F0040E406EFA0E416E61
:1041D000C1EC09F0402EFAD7306A28D6D4EC09F0A9
:1041E000015002081BE15CEC09F0306A0C0E506EC5
:1041F00090EC09F0516A020E526E5FEC09F0320E3B
:10420000F66E0E0EF76EB1EC09F0020E406EFA0E6D
:10421000416EC1EC09F0402EFAD708D616D7D4EC7F
:1042200009F001500408D8A40ED1EEEC0CF00C0EED
:10423000506E90EC09F0516A010E526E5FEC09F07D
:10424000400EF66E0E0EF76EB1EC09F0516A020EDA
:10425000526E5FEC09F0520EF66E0E0EF76EB1EC78
:1042600009F0040E406EFA0E416EC1EC09F0402ECA
:10427000FAD782A224D00C0E506E90EC09F0516A4D
:10428000010E526E5FEC09F05C0EF66E0E0EF76ECC
:10429000B1EC09F0516A020E526E5FEC09F06C0E3F
:1042A000F66E0E0EF76EB1EC09F0020E406EFA0ECD
:1042B000416EC1EC09F0402EFAD7010E302682A4DF
:1042C00024D00C0E506E90EC09F0516A010E526E23
:1042D0005FEC09F07E0EF66E0E0EF76EB1EC09F093
:1042E000516A020E526E5FEC09F08E0EF66E0E0EE3
:1042F000F76EB1EC09F0020E406EFA0E416EC1ECA1
:1043000009F0402EFAD7010E302681A624D00C0EDB
:10431000506E90EC09F0516A010E526E5FEC09F09C
:10432000A00EF66E0E0EF76EB1EC09F0516A020E99
:10433000526E5FEC09F0B00EF66E0E0EF76EB1EC39
:1043400009F0020E406EFA0E416EC1EC09F0402EEB
:10435000FAD7010E302681A824D00C0E506E90ECB6
:1043600009F0516A010E526E5FEC09F0C20EF66E52
:104370000E0EF76EB1EC09F0516A020E526E5FEC50
:1043800009F0D20EF66E0E0EF76EB1EC09F0020EC9
:10439000406EFA0E416EC1EC09F0402EFAD7010EC4
:1043A0003026305000082EE25CEC09F00C0E506E06
:1043B00090EC09F0516A010E526E5FEC09F0E40EC8
:1043C000F66E0E0EF76E070E446EEEEC09F030C07E
:1043D00040F0180E416E11EC0AF0516A020E526E56
:1043E0005FEC09F0EE0EF66E0E0EF76EB1EC09F012
:1043F000040E406EFA0E416EC1EC09F0402EFAD761
:10440000306A14D5D4EC09F0015002081BE15CECD1
:1044100009F0306A0C0E506E90EC09F0516A020EF1
:10442000526E5FEC09F0FC0EF66E0E0EF76EB1ECFC
:1044300009F0020E406EFA0E416EC1EC09F0402EFA
:10444000FAD7F4D416D7D4EC09F001500308D8A455
:104450009BD20C0E506E000190EC09F0516A010ED7
:10446000526E5FEC09F00A0EF66E0F0EF76EB1ECAD
:1044700009F0516A020E526E5FEC09F0160EF66EEC
:104480000F0EF76EB1EC09F0640E416EC1EC09F04D
:10449000D4EC09F0012C6BD005EC0DF00C0E506E35
:1044A00090EC09F0516A010E526E5FEC09F01E0E9D
:1044B000F66E0F0EF76EB1EC09F0516A020E526EF5
:1044C0005FEC09F02E0EF66E0F0EF76EB1EC09F0F0
:1044D000040E406EFA0E416EC1EC09F0402EFAD780
:1044E00081AA25D05CEC09F00C0E506E90EC09F01E
:1044F000516A010E526E5FEC09F0380EF66E0F0E27
:10450000F76EB1EC09F0516A020E526E5FEC09F0E1
:10451000420EF66E0F0EF76EB1EC09F0040E406E0F
:10452000FA0E416EC1EC09F0402EFAD792D7D4ECC6
:1045300009F0015002081AE15CEC09F00C0E506E13
:1045400090EC09F0516A020E526E5FEC09F0500EC9
:10455000F66E0F0EF76EB1EC09F0040E406EFA0E17
:10456000416EC1EC09F0402EFAD773D7B9D7D4EC1D
:1045700009F00150020867E10DEC0DF00C0E506ED1
:1045800090EC09F0516A010E526E5FEC09F05E0E7C
:10459000F66E0F0EF76EB1EC09F0516A020E526E14
:1045A0005FEC09F06E0EF66E0F0EF76EB1EC09F0CF
:1045B000040E406EFA0E416EC1EC09F0402EFAD79F
:1045C00081AA25D05CEC09F00C0E506E90EC09F03D
:1045D000516A010E526E5FEC09F0780EF66E0F0E06
:1045E000F76EB1EC09F0516A020E526E5FEC09F001
:1045F000820EF66E0F0EF76EB1EC09F0040E406EEF
:10460000FA0E416EC1EC09F0402EFAD722D7D4EC55
:1046100009F00150020816E15CEC09F0516A020E43
:10462000526E5FEC09F0900EF66E0F0EF76EB1EC65
:1046300009F0040E406EFA0E416EC1EC09F0402EF6
:10464000FAD707D7BDD7D4EC09F001500308D8A496
:1046500099D10C0E506E000190EC09F0516A010ED8
:10466000526E5FEC09F09E0EF66E0F0EF76EB1EC17
:1046700009F0516A020E526E5FEC09F0A80EF66E58
:104680000F0EF76EB1EC09F0640E416EC1EC09F04B
:10469000D4EC09F0012C67D005EC0DF00C0E506E37
:1046A00090EC09F0516A010E526E5FEC09F0B80E01
:1046B000F66E0F0EF76EB1EC09F0516A020E526EF3
:1046C0005FEC09F0CA0EF66E0F0EF76EB1EC09F052
:1046D000040E406EFA0E416EC1EC09F0402EFAD77E
:1046E00081AA25D05CEC09F00C0E506E90EC09F01C
:1046F000516A010E526E5FEC09F0D40EF66E0F0E89
:10470000F76EB1EC09F0516A020E526E5FEC09F0DF
:10471000E20EF66E0F0EF76EB1EC09F0040E406E6D
:10472000FA0E416EC1EC09F0402EFAD792D7D4ECC4
:1047300009F00150020816E15CEC09F0516A020E22
:10474000526E5FEC09F0F00EF66E0F0EF76EB1ECE4
:1047500009F0040E406EFA0E416EC1EC09F0402ED5
:10476000FAD777D7BDD7D4EC09F0015002086BE136
:104770000DEC0DF00C0E506E90EC09F0516A010E2C
:10478000526E5FEC09F0FE0EF66E0F0EF76EB1EC96
:1047900009F0516A020E526E5FEC09F0100EF66ECF
:1047A000100EF76EB1EC09F0040E406EFA0E416E79
:1047B000C1EC09F0402EFAD781AA25D05CEC09F0B3
:1047C0000C0E506E90EC09F0516A010E526E5FECC7
:1047D00009F01A0EF66E100EF76EB1EC09F0516A80
:1047E000020E526E5FEC09F0280EF66E100EF76E98
:1047F000B1EC09F0040E406EFA0E416EC1EC09F006
:10480000402EFAD726D7D4EC09F0015002081AE15D
:104810000C0E506E90EC09F05CEC09F0516A020E3F
:10482000526E5FEC09F0360EF66E100EF76EB1ECBC
:1048300009F0040E406EFA0E416EC1EC09F0402EF4
:10484000FAD707D7B9D7D4EC09F001500308D8A498
:1048500098D00C0E506E000190EC09F0516A010ED8
:10486000526E5FEC09F0440EF66E100EF76EB1EC6E
:1048700009F0516A020E526E5FEC09F0540EF66EAA
:10488000100EF76EB1EC09F0640E416EC1EC09F048
:10489000D4EC09F0012C6BD019EF0DF00C0E506E1A
:1048A00090EC09F0516A010E526E5FEC09F05C0E5B
:1048B000F66E100EF76EB1EC09F0516A020E526EF0
:1048C0005FEC09F06C0EF66E100EF76EB1EC09F0AD
:1048D000040E406EFA0E416EC1EC09F0402EFAD77C
:1048E00081A425D05CEC09F00C0E506E90EC09F020
:1048F000516A010E526E5FEC09F0760EF66E100EE4
:10490000F76EB1EC09F0516A020E526E5FEC09F0DD
:10491000800EF66E100EF76EB1EC09F0040E406ECC
:10492000FA0E416EC1EC09F0402EFAD792D7D4ECC2
:1049300009F0015002081AE10C0E506E90EC09F0DB
:104940005CEC09F0516A020E526E5FEC09F08E0EBB
:10495000F66E100EF76EB1EC09F0040E406EFA0E12
:10496000416EC1EC09F0402EFAD773D7B9D7D4EC19
:1049700009F00150030804E15CEC09F0EBEF0DF0E5
:1049800087D786D685D584D535EF1FF06AEF1CF022
:0C4990000AEF0EF00001EBEF0DF0030049
:020000040030CA
:0E00000000C91E1E008781000FC00FE00F40D8
:00000001FF
;PIC18F2520
;CRC=24CE  CREATED="17-may.-25 02:46"
